:10000000A854012051250200F5D803003D25020027
:100010003D2502003D2502003D2502003D25020050
:10002000000000000000000000000000C1260200E7
:100030003D25020000000000592602003D25020077
:1000400049280200492802004928020049280200E4
:1000500049280200492802004928020049280200D4
:1000600049280200492802004928020049280200C4
:1000700049280200492802004928020049280200B4
:1002500049280200A115040049280200492802008B
:1002600049280200492802008B1504004928020091
:1002700049280200492802004928020049280200B2
:1002800049280200492802004928020049280200A2
:100290004928020049280200492802004928020092
:1002A0004928020049280200492802004928020082
:1002B0004928020049280200492802004928020072
:1002C0004928020049280200492802004928020062
:1002D0004928020049280200492802004928020052
:1002E0004928020049280200492802004928020042
:1002F0004928020049280200492802004928020032
:100300004928020049280200492802004928020021
:100310004928020049280200492802004928020011
:100320004928020049280200492802004928020001
:1003300049280200492802004928020049280200F1
:1003400049280200492802004928020049280200E1
:1003500049280200492802004928020049280200D1
:1003600049280200492802004928020049280200C1
:1003700049280200492802004928020049280200B1
:1003800049280200492802004928020049280200A1
:100390004928020049280200492802004928020091
:1003A0004928020049280200492802004928020081
:1003B0004928020049280200492802004928020071
:1003C0004928020049280200492802004928020061
:1003D0004928020075150400492802004928020036
:1003E0004928020049280200492802004928020041
:1003F0004928020049280200492802004928020031
:100400004928020049280200492802004928020020
:100410004928020049280200492802004928020010
:100420004928020049280200492802004928020000
:1004300049280200492802004928020049280200F0
:1004400049280200492802004928020049280200E0
:1004500049280200492802004928020049280200D0
:1004600049280200492802004928020049280200C0
:0C04700049280200492802004928020027
:10048000054B00221B78826001330260034A426000
:10049000C371FF230372704700140020800108001D
:1004A000064A074B02604FF422729B788280082232
:1004B000C371002382710372704700BF6B7A010021
:1004C00000140020064A074B02604FF43E72DB78AE
:1004D00082800822C371002382710372704700BFBB
:1004E000D577010000140020064A074B02604FF444
:1004F000C472DB7A82800822C371FF238271037287
:10050000704700BF9B730100001400202DE9F341E8
:10051000C41D0028064624F007040CBF0020204616
:1005200000F012FD071E04DA6FF00B0002B0BDE808
:10053000F081374DE988A88803316B7A03302A7A35
:1005400089B280B212F034FC0028EDDB3C44A9787B
:10055000EB78002E04F10304194424F0030400FB9B
:1005600001F10CBF0020204600F074FE20440EB9BB
:100570000028D9DBEA7A0446B2B1EB7B697C1344EC
:100580001944FF29D0D80330002EAA89C9B220F01F
:1005900003040CBF0020204600F0CEFE0028C3DB81
:1005A00004440EB9002CBFDB012000F0C3FCB0B145
:1005B000A97BA1B195F82B3033B340234FF481725E
:1005C0000734002E24F007040CBF0020204604F05E
:1005D0007BF80028A8DB04440EB9002CA4DBAB7A1E
:1005E000FBB1EB7AB3B10734002EA97A24F00704EB
:1005F0000CBF0020204608F03DFD002894DB044499
:100600007EB9002C0DDA8FE725232822D8E700BF1A
:1006100000140020012000F08DFC10B1AB7B002BFA
:10062000E1D1734B1B6893B1A97D81B10334002ED6
:10063000EA7D24F003040CBF0020204698470028E0
:10064000FFF672AF044416B9002CFFF66DAF694B8C
:100650001B688BB1297C79B10334002E24F003048C
:100660000CBF0020204698470028FFF65DAF0444E9
:1006700016B9002CFFF658AF5F4B1F68B7B1697C05
:10068000A1B10334002E2B7D24F0030408BF002009
:10069000009318BF2046EB7CAA7CB8470028FFF6E1
:1006A00043AF044416B9002CFFF63EAF072000F01C
:1006B00041FC98B1A97D89B10334002E2A7E24F033
:1006C00003040CBF0020204600F024FF0028FFF6A2
:1006D0002BAF044416B9002CFFF626AFB6FA86F706
:1006E00095F823007F09A0B103346B7FA97E24F025
:1006F000070419443B4644F00404C9B2224600F002
:1007000049FF0028FFF610AF044416B9002CFFF68D
:100710000BAF95F8241000294CD004F10708002EE7
:10072000EA8C28F007080CBF0020404612F054FB6A
:10073000041EFFF6F9AE4444002E3ED1002CFFF615
:10074000F3AEA97F002945D095F82230002B41D087
:100750002A8C0734002E02F1240224F007080CBF73
:100760000020404692B212F037FB0028FFF6DCAEC4
:10077000404416B90028FFF6D7AE03302B7FA97E80
:1007800020F0070019443B4640F0040495F822008D
:10079000C9B2224600F0F0FE0028FFF6C5AE0444C0
:1007A00086B9002CFFF6C0AEEB6AF3B1C6B1EC62BD
:1007B0000020BBE6002EC4D08846E98C40460FF0EE
:1007C0004DF9BEE72A8C4046A97F083292B20FF05D
:1007D0004BF9E9E7002EE7D0002211461046F6E774
:1007E00028343FF5A1AE2046A0E6002EE0D1FAE77E
:1007F000D0000020D4000020D80000201FB572B621
:10080000194B1C6BECB9BFF34F8F1849184BCA68D2
:1008100002F4E0621343CB60BFF34F8F00BFFDE7EC
:10082000B2FBF6F22B465D1C002AF9D1DBB203F1D4
:1008300010056D4405F80C2C0A2233B901A8A04715
:10084000E1E7024600230A26EDE7013BDBB203F1B4
:1008500010050DEB0506B0FBF2F502FB150030307C
:1008600006F80C0C2846E8E70014002000ED00E034
:100870000400FA0513B5124C68462389ADF8003020
:10088000E388ADF80430A388ADF8023006F08EFAA4
:1008900018B1FC219C20FFF7B1FF207D06F0DCFAA7
:1008A00008B1FF21F6E7E07C06F0D0FA10B14FF472
:1008B0008071EFE794F829000DF010FD02B010BD33
:1008C0000014002070B50546002858D011F080FAB9
:1008D00018B94FF0FF34204670BD0FF0A3FDB0F5FE
:1008E000FA7FF6D8274C012625630025284684F890
:1008F0003450257084F82B50E56284F82A500FF0AC
:100900004FF81A22294604F10F0017F0B6FE1B23F8
:1009100008210322A3802846E3800223A1721F211D
:100920006372E375F72322722384FB23A2734922A7
:10093000E3840A23A1812946E27484F82930A67051
:10094000E670E672A674267604F050FE2A4631461A
:10095000304604F007FE044620B140F2B7319C2037
:10096000FFF74CFF0246014604F02AFEEFF3108524
:1009700072B600F035FE002DADD162B6ABE76FF078
:100980001504A8E70014002038B51446002840F0EC
:10099000EE80784D95F83430032B00F0E58019B3E4
:1009A00012B96FF0150038BD0139172900F2DF8048
:1009B000DFE811F0180029002C0042006C007500DF
:1009C0009400480078007B008E004E0054006200C6
:1009D00067009A009D00AC00AF00B200A300B50014
:1009E000B900D2001378AB700020FFF78FFD00280C
:1009F000B7BF012302236FF00B0085F83430A8BF86
:100A000085F83430CFE71378EB70EDE71379002BDE
:100A1000C7D05379002BC4D01288FB2AC1D8638871
:100A20001B3B9BB2E02BBCD81A2ABAD92368A288F8
:100A30006B60514B9A80D7E71378EA7B9342B0D32F
:100A4000EB72D1E71378EA7A9342AAD8EB73CBE73B
:100A50001378EA7A9342A4D86B74C5E71378002B15
:100A60009FD05378013BDBB2F82B9AD81388927849
:100A70006B82424B9A70B7E7107868750DF0ECFB0B
:100A8000B2E71378002B8CD02B76ADE7012000F075
:100A900051FA237808B1012B83D9AB73A4E71388EB
:100AA000AB81A1E71378AB759EE7072000F042FA0F
:100AB00018B92378012B7FF674AF072000F03AFABB
:100AC00018B12378002B3FF46CAF2378EB758BE7DC
:100AD0001378082B3FF665AF2B7485E71388FF2B3F
:100AE0003FF65FAFAB727FE713786B767CE71378E6
:100AF0000E2B3FF656AFAB7676E72368204AC5F853
:100B00001E3063685360238913816DE71378EB7699
:100B10006AE713786B7767E713782B7764E71378C6
:100B200085F8283060E704F017FD98B1007900F0EF
:100B300001026178207804F015FD00287FF433AFBE
:100B40006378012B7FF650AF0EF030FF00287FF462
:100B50004BAF26E70246ECE713785A1E092A3FF608
:100B600020AF85F829303FE74FF0FF301BE76FF0EB
:100B70002C0018E700140020041400201214002098
:100B80001E140020F8B50D46064630B329B311F007
:100B9000070422D1124F97F83430012B02D16FF0A5
:100BA0000B00F8BD032B02D14FF0FF30F9E700F046
:100BB0007DF80028F8D02846FFF7A8FC0028EEDBD7
:100BC00017F01FF83046F96A06F0F6F9FFF752FE03
:100BD0000323204687F83430E3E76FF01500E0E7A1
:100BE0000014002010B5074C94F83430032B03D1C7
:100BF00006F0FAF907F09EF912F031FA002084F8B5
:100C0000340010BD0014002050B1074B03F1140252
:100C100053F8041B934240F8041BF9D1002070479D
:100C20006FF01500704700BFFA16050008B506F012
:100C30004DF903490320BDE8084000F073B900BF37
:100C4000E904000008B506F055F903490220BDE8A3
:100C5000084000F067B900BFC504000008B5094BA3
:100C600093F82B305BB106F085F90749012000F0BD
:100C700059F906490020BDE8084000F053B906F0D4
:100C80005BF9F2E70014002081040000A1040000D9
:100C900002680020014B1A60704700BF3814002022
:100CA000014B1B68184700BF38140020024B18681E
:100CB000003818BF0120704738140020F7B50446EB
:100CC0002A4E071D2948376007F054F902280546C7
:100CD00006D12649204611F02AFB284603B0F0BD74
:100CE00004283BD13378092B0CD0262B20D0314659
:100CF000204611F08EFBA178207811F0EAFA002846
:100D0000EBD1DFE705213E2011F0E3FA0028EED118
:100D1000F37801A93279684643EA0223ADF800303E
:100D200013F092FF0028CDD056210820FFF766FD72
:100D30001A213E2011F0CDFA0028D8D173686946F7
:100D400001A8C3F30F23ADF8043011238DF806304A
:100D500006F088F80028B5D06921E6E70828BCD15C
:100D60000249204611F015FBB7E700BF3C140020F4
:100D7000074B4FF0FF3141F6FF72C3E900120549FE
:100D80000022C1E900221F21C3E90212704700BFFF
:100D900060000020401500203F280CD801380B4B84
:100DA000C0F3421200F01F0053F8223023FA00F083
:100DB00000F001007047FF2806D04038044BC0F314
:100DC000421200F01F00EFE7012070476000002092
:100DD00040150020074B0146006849681A4603C2C7
:100DE00040F48C2200201A6041F0107242F4FF623D
:100DF0005A607047600000200246034B006851684B
:100E000003C30020704700BF401500200246034B7B
:100E10000068516803C30020704700BF68000020CD
:100E200008B5382800F1FF33DBB205D106F04AF9E6
:100E30004078C0F3C00008BD5909054A03F01F03FC
:100E400002EB81029068D84000F00100F3E700BF98
:100E5000600000200A8870B595B2C67CC2F30E020D
:100E60000488023602F118033444C35AA4B233444E
:100E70002344013BB3FBF4F303FB0422438892B207
:100E80009342044B8BBF2B40AB4313439BB20B806D
:100E900070BD00BF0080FFFF4A1E062A08B503464A
:100EA000084604D84FF4D1711520FFF7A7FC094A72
:100EB000914202D940F2A311F6E711B903B11960CA
:100EC00008BD2BB11B680022C3E901211A1D1A605D
:100ED0000430F5E7FAFFFF7F10B5114B00EB41043A
:100EE0001A786389B3FBF2F303FB0223013A1A4435
:100EF000B2F5706F0279807828BF00231A440B186E
:100F0000B2FBF0F100FB11215B1AB3FBF0F100FB27
:100F1000113313446FEA43436FEA5343638110BDB7
:100F200048150020024B03EB80035960704700BF57
:100F300048150020034B03EB80035868003818BFA6
:100F400001207047481500202DE9F04F10F0070AE6
:100F500085B0054604D040F261111720FFF74EFC22
:100F6000534F04464FF0010B07F15406B146B0460B
:100F700057F8043B8DF80BA03BB101A898479DF8AA
:100F80000A30082B01D9E821E7E79DF80B1041BB97
:100F900005B131604F4506F10406E9D1002D6ED050
:100FA0000022DFF810911427964689F8002058F89F
:100FB00027A0013FBAF1000F54D09AF804609AF8C4
:100FC00002C0FF2E5FD039460023481C37D19C4415
:100FD000BCF1FF0F3ED90AB189F800E040F22711B9
:100FE000BBE79DF80AC04B1D60465A0004EB430363
:100FF000022838BF0220441E40422344BDF8084066
:101000006444CCF1000C0340013C04EA0C04B4F548
:10101000803F01D3F821A0E775B19A1A3260917030
:10102000148082F803B09DF80C00107101984FEA0B
:10103000104C1081A2F806C004FB0134AAE758F84E
:10104000210028B190F804B0B34504BF80781B1884
:101050000139BAE7DBB2E6458AF804303CBF5FFAF3
:101060008CFE01227B1CA2D10AB189F800E0142673
:1010700040F6FF6A58F82670B7B9013EFAD2601BF5
:1010800005B0BDE8F08F0023E5E707EB410309F168
:1010900001093846A3F80AA0FFF71EFF5FFA89F19D
:1010A000BB788B42F1D8E8E74FF00009F6E700BFC4
:1010B0004C1500204815002038B54FF6FF73024646
:1010C0000380184B03EB8103986DA8B184780379F2
:1010D000B3FBF4F104FB1133DBB2194600EB41051D
:1010E000B5F90A50002D0EDB0131B1FBF4F504FB1C
:1010F0001511C9B28B42F1D1002038BD6381BDE822
:10110000384011F031BE00EB41046389C3F30E0394
:101110001380C278002AF1D14FF4D5711720FFF760
:101120006DFB00BF481500201C4B03EB810370B51D
:101130009C6D054644B3030404D54FF4DC711720BD
:10114000FFF75CFB0146204611F0F1FDFF28014648
:1011500004D02046BDE8704011F006BEA078B5FB73
:10116000F0F300FB1353DBB219460A1D04EB4206F1
:10117000B6F90260002E09DB0131B1FBF0F200FB91
:101180001211C9B28B42F0D1002070BD8B4201D048
:101190000023E37004EB42025580DAE74815002093
:1011A000094B03EB8103014610B59C6D204611F0FD
:1011B000BEFDFF28014604D02046BDE8104011F0D6
:1011C000D3BD002010BD00BF48150020F8B5104B5E
:1011D000074603EB810301469C6D204611F0A7FDF5
:1011E000FF28054611D0E288238953EA024606D03B
:1011F0000146204611F0B8FD01463846B04720466A
:101200002946FFF769FE0020F8BD0520FCE700BF76
:101210004815002038B50E4B0446827903EB820353
:10122000986D08B9052038BD8278E1799142F9D2EC
:101230004B1CE37100EB41035D89B3F90A30002BCD
:10124000F3DBA58011F090FD20600020EBE700BFEC
:101250004815002070B5044610F003000E4603D078
:101260004E211820FFF7CAFAFFF716FE054624B1F3
:10127000034831460460FFF70FFE284670BD00BFEB
:10128000F41500202DE9F14FDFF870B01E46074637
:101290000D46DBF8003090469DF828A09DF82C9074
:1012A0001BB960211820FFF7A9FA524609214046D0
:1012B00011F0C1FB4A4684B20921304611F0BBFB54
:1012C00081B2DBF80000214411F005FD386018B947
:1012D000286001B0BDE8F08F04445346414609221E
:1012E0002C60386811F06AFB4B46092231462868A9
:1012F00001B0BDE8F04F11F061BB00BFF415002054
:1013000070B50E46044611F0A9FB0546304611F0B3
:10131000A5FB044B2A1821461868BDE8704011F05F
:10132000FFBC00BFF4150020024B186808B111F093
:10133000C6BC7047F41500201F2AF8B504461346B2
:101340000ED89200033222F00303B3F5803F2DD272
:10135000184DACB1A00710D068210920FFF74EFA54
:10136000FF2B4FEA420204D9FF339A42A8BF1A4624
:10137000E8E77C2AB8BF7C22E4E729706C602B8107
:1013800022F0030228230127120403FB01F06B68FB
:101390000025120CEEB2B14200D8F8BD14B12618E7
:1013A0001F705E60104401352833F3E74FF0FF30C3
:1013B000F3E700BFF8150020154A002170B5536807
:1013C0001578C8B2854203D8BA210920FFF716FA6A
:1013D0001C461846013114F8286B0EB92346F0E775
:1013E0000021997001241289996103F126055C702E
:1013F0009208D96103F11E04596824F8022FA5420E
:1014000043F8041F1144F8D100234361037070BDF9
:10141000F81500200A4B1B89B3F5FF7F4FEA9300B4
:1014200006D25A089B1A9BB2984238BF184670479A
:10143000B3F5EE6F01D8FF22F4E740F27263F3E7F1
:10144000F81500204B782DE9F04106460C4602F0D5
:10145000040702F0FB05E3B1A5BBFF23A3707B08E3
:1014600004EB57073A7D032A02D1022D18BF01333E
:10147000E2180121117503F10C01002204EB830332
:1014800024F811205B68A27030463360B280BDE85A
:10149000F081002DE1D1012301F11E028D61204672
:1014A0004B7004F1260C1A4BCD611B8949689B08CF
:1014B00022F8023F944540F8041F1944F8D1002354
:1014C0006361CAE7D1F8048014220021A01861707A
:1014D00017F0D3F80E4B1B89B3F5FF7F0FD25A08D4
:1014E0009B1A9BB208EB0301C4F804802384A1601B
:1014F0006284C4F80C80A3842161E284ADE7B3F573
:10150000EE6F4FF0FF02EBD940F27263EAE700BFE3
:10151000F81500202DE9F84305460C46F720052173
:10152000914611F088FA061E21DB1DB906FB04F076
:10153000BDE8F88315F0030703D098211920FFF7C1
:101540005DF9DFF83080C8F81050A8F81460BBB21D
:101550009C42EBD9B8F814504B46D8F8100005223D
:10156000F72107FB0500013711F028FAEFE74FF0EC
:10157000FF30DDE70C16002007B5CDE900230B4650
:1015800003490246081D11F044FD03B05DF804FB59
:101590002416002013B5064CCDE900230B46024665
:1015A00004F1080104F10C0011F033FD02B010BD8C
:1015B0002416002008B54B1E032B03D923219020AD
:1015C000FFF71CF90028054A0CBF05230C2303EB89
:1015D0008103053323F00103137008BD3416002086
:1015E000114B01224FF0FF3000215A60C3F808036D
:1015F000C3F80015C3F804255A6040F6FE72C3F81C
:1016000008034020C3F8001503F570330749C3F8F9
:101610000825C1F88800BFF34F8FBFF36F8FC1F863
:101620008801C3F8082570470060045000E100E01D
:101630000A4606483D2302F8033BC368C1F803305D
:101640000369536043699360704700BF38160020F8
:10165000024B5A8C02435A845B6A184738160020A2
:10166000014B00215B6A18473816002070B5194CF1
:10167000054694F828604EB1012807D1638C1A07FB
:1016800004D594F830300BB1012070BD0129FBD88E
:10169000636B284698470028F6D094F83800002855
:1016A000F2D11EB9012D0BD03046EEE7002DECD162
:1016B000638C9B0704D594F8300080F00100E4E7C8
:1016C000608C0028E0D194F83930002BDDD194F8FB
:1016D0003A00F2E73816002010B5154C0DF0FAFB71
:1016E0000EF020F9A08FFFF7BBFF237E63B12246E7
:1016F000104904F1190052F80C3BE3606368536031
:10170000A368936014F099FC0B4BA28F93E803003D
:1017100007F0E0FCE36A188807F062FC236C94F899
:10172000381094F83E009847002384F8443010BDE8
:10173000381600203116000060160020034B93F885
:1017400044300BB1FFF7C8BF704700BF3816002008
:1017500070B5214C0646A36DE56AA3644FF481730E
:1017600094F85C00A4F84C3095F8933095F8751017
:1017700000EB83002EB9FF2803D195F874308B421B
:1017800001D00DF03BFA95F89330FBB1206E0DF0CF
:1017900087FC216EA06C0EF04BF85EB995F87530A1
:1017A000033B012B2B8F8CBF00202820184480B2D4
:1017B0000DF0DAFCA88E0DF0AFF995F8741000204A
:1017C0000DF018FD022384F8443070BDA06C0DF0BC
:1017D00067FC0EF0A7F8E0E7381600200138C0B229
:1017E000032808B504D940F23F410620FFF706F868
:1017F000014B185C08BD00BFC37104002DE9F04324
:10180000324C87B006460F4694F84430012B5FFAFD
:1018100083F804D040F2E2712720FEF7EFFFE56A7B
:1018200095F8843053B10021042085F88410FFF727
:101830000FFF94F828300BB185F8858095F8883033
:10184000042B0DD122490220FFF702FF94F8283023
:1018500033B1E36E1B78991E4B424B4184F8303014
:1018600095F89330F3B1E36A93F87500FFF7B6FF8C
:101870000023012205F1F801D5E93C89CDE90432C4
:101880000390424694F85C300220029305F584737D
:10189000019394F82830003B18BF012300934B4676
:1018A0000DF0E2FE26B107B0BDE8F043FFF714BF2C
:1018B000002FF8D031463046FFF7D8FE0028F2D18D
:1018C00007B0BDE8F043FFF743BF00BF3816002064
:1018D000A416002008B5094B93F84420022A04D02E
:1018E00040F2BF212720FEF789FFDA7A42F0010299
:1018F000DA72BDE80840FFF7EFBE00BF38160020DF
:10190000F7B5184C0646656F0DB1236D23B940F24B
:101910009A712720FEF772FFB4F8543001F00301EA
:101920002F466B702B7823F003030B4307F8033B20
:101930003846B4F85420216D10F0A2FB0DF10202DC
:1019400001A9A06FA564276511F0AFF9019811F006
:101950009AF90122B4F854103060A06F11F03EF9EA
:1019600003B0F0BD381600202DE9F74FBF4C00231F
:10197000E56A8DF8013095F87410ADF8023058B969
:1019800095F8932094F85C3003EB8203FF2B03D18E
:1019900095F875308B4202D0FF200DF02FF995F8A5
:1019A0008830052B00F23381DFE813F00600FF00DA
:1019B000060106012101210194F87F300DF1020199
:1019C00001A8A5F86430ADF8023005F011FD40B172
:1019D000019E36B1012384F88030042385F88830D5
:1019E00000E195F8CFA0BAF1000F40F0DB800DF1D7
:1019F00001020DF10201D4F8840011F056F80646F8
:101A0000002800F0CF809DF80180B8F1000F18D0B9
:101A10000146D4F8840011F032F911F034F9D0F80D
:101A200000B0D0F8049007465BEA090340F09780C5
:101A300000233B707B70BB70FB703B717B71BB7193
:101A4000FB71BDF80230002B40F09980012385F82E
:101A50008830012384F88030BDF802306666A4F82F
:101A6000703003B1F31C95F8887095F88990022FB7
:101A700095F88A80E36600F0CE80043F012F00F2E3
:101A8000C980BAF1000F00F0CC800026E36E1B780D
:101A90001B2B40F0DF80012105F110000DF0F6F85E
:101AA00003270122616E4FEAC9094FEA88080B78C3
:101AB00009F0080908F0040803F0F30343EA0903F6
:101AC00043EA080323F0100343EA061323F0030359
:101AD0003B430B70B4F870304B700223606EA4F877
:101AE0006830037823F0200343EA4213037052B1B5
:101AF000E36A197C5B7C032903F01F0308BF002104
:101B000043EA8113837006F0010695F8923084F859
:101B100039601646002B00F09F80B4F87030002B1F
:101B200000F09A80206E0DF0BBFA3246D4E918100E
:101B30000DF0B8FC18B9D4E918010DF00FFEE88ECD
:101B40000CF0EAFF95F8751001200DF053FB01230E
:101B500084F8883084F8443003B0BDE8F08F16F084
:101B6000CDF9834579EB0101BFF462AF0023012277
:101B7000C2463F4EADF8023085F888206EE79DF8EA
:101B800001301BB93380B370032360E7337803F06F
:101B90000303012BF8D0022385F88830002385F851
:101BA000953056E74FF00008E0E74FF0000A304E5E
:101BB0005346ADF802A051E7B5F864300DF10102CB
:101BC0000DF10201D4F88400ADF8023010F06DFF81
:101BD000064620B940F2DE412720FEF70FFE012322
:101BE00084F88030BDF802304FF0000A36E70DF17E
:101BF000020101A805F0FCFB08B1019E16B940F2F4
:101C0000EB41E9E7012384F880300523E6E640F262
:101C1000F341E1E70127BAF1000F07D00026324671
:101C200040E71B78022B3FF430AF0327D4F8840041
:101C300010F093FF48B9032F3FF427AF05F0F4FBF2
:101C400080F00106F6B200222CE7032F4FF00106C8
:101C5000F9D11BE70327F6E7606E0DF021FA0DF0CE
:101C600061FE3146606E16F001F868E73816002014
:101C7000B41600202DE9F04F0023794C8DB0814639
:101C80008B46E56ACDE9083394F84430022B04D042
:101C900040F685012720FEF7B1FDA26C517813783C
:101CA000A4F8541003210A44A4F84C10226503EA56
:101CB00001028DF82820C3F3C0028DF82920C3F358
:101CC00080028DF82A20C3F30012C3F340138DF86D
:101CD0002B208DF82C3095F89330002800F08A8165
:101CE000D3B10DF03DFE831EDBB2012B04D8FFF70C
:101CF000F3FC0DB0BDE8F08F70B9B4F854305BB1AF
:101D000095F88A309DF8292003F001039A4203D107
:101D1000012384F83E30EAE7524A0AA9A2F12800DA
:101D200012F04BF98046002849D1B4F8541011B193
:101D3000A06F10F033FFA38F9DF82A1043F40073B7
:101D40006067A38795F889300133DAB203F00103A5
:101D5000994236D0CA46B8F1000F2DD195F88A3095
:101D60009DF8292003F001039A4225D1B4F854606C
:101D70009DF82830002E7BD05A1E012A78D8A38FD8
:101D800095F8937043F48053A3870CF0DBFE04288E
:101D900094F8893006D1002F0CBF1F221B229342DA
:101DA00028BF1346B4F854209A424ED994F83830DC
:101DB00043F0100384F838300026374670E00020E6
:101DC000B9E795F888305BB3013B85F88920DBB231
:101DD000042B0FD8244A13441B79002BBAD0022BB2
:101DE0000BD108A9D4F8840010F081FE88B940F224
:101DF000AA614FE740F289614CE7032B10D105F04F
:101E000005FB10B940F2B46144E700210820FFF758
:101E10001FFCD5E93A32013342F10002C5E93A32FA
:101E2000002194F8283085F888103BB195F885306A
:101E300023B1102085F88510FFF70AFCA38F4FF01F
:101E4000000A43F40063A38785E7636F002BB3D0D8
:101E500094F88A3053B12020FFF702FCACE700BFB2
:101E60003816002088160020C37104009DF8283021
:101E700095F88A20032B02F1010285F88A2000F0F0
:101E8000AE805A1E012A00F29C80002E94D00026BB
:101E90004F46D5E93C32013342F10002C5E93C32FC
:101EA00095F89230FBB195F87400D5E93A23CDE965
:101EB0000623FFF793FC00214FF0010C0390042050
:101EC000CDE9041CFB21029105F58471019194F880
:101ED0002810B1FA81F14909DDE90623009105F1E5
:101EE000F8010DF0C1FBB8F1000F40F0AD80636F59
:101EF0009DF82B20002B40F0A580B4F85430B3FAA5
:101F000083F35B09012A14BF002303F0010384F863
:101F10003A30BBF1000F00F099800DF095F9002FD9
:101F200040F0A7800126A38F5A0606D44020FFF771
:101F300097FBA38F43F04003A387BAF1000F10D0A3
:101F400094F8283043B1B4F80720B4F805301343AF
:101F5000B5F88620134304D0B4F809300133A4F84F
:101F60000930B9F1000F00F08A80B4F80530013370
:101F7000A4F80530002384F88B30444807F01EF89D
:101F8000089830B110F07FFE00220272294606F058
:101F9000F3F8099B33B100221A720C2229460998E2
:101FA00006F0B8F8002E7FF4A2AEA38F1B063FF513
:101FB000A0AE8020FFF754FBA38F43F08003A387DC
:101FC00097E6002E3FF4F9AE002B7FF4F5AED5E98D
:101FD0003C32013342F10002C5E93C32ECE6A38F0A
:101FE00001202B4943F4805385F88400A387FFF731
:101FF0002FFBECE70BB10DF0CDFC94F88B300133E7
:1020000084F88B30A38F43F48063A38795F87530F1
:10201000033B012B0DD80CF095FD04280DD1B4F82D
:10202000546000271B2EB846BA4694BF00260126EE
:1020300036E706F039F90028EDD100263746B046DC
:10204000B2462DE701235DE7002360E794F88B108B
:102050000120FFF70BFB00287FF45FAFFFF784FC44
:10206000002F3FF460AF9DF8281009A8FFF748FC47
:1020700059E79DF8281009A8FFF742FC52E7B4F889
:1020800007300133A4F8073077E700BF601600205F
:1020900088160020064B10B593F8442002F0FF0488
:1020A00022B91C7607F00EF8204610BD0C24FBE781
:1020B00038160020094B0A4A10B51A60FFF7EAFFEC
:1020C00020B14FF4A2712720FEF798FB054C04F0D5
:1020D000A7FFA06504F0A8FF206610BDDC0000206B
:1020E000CC230000381600202DE9F04389B0A44C21
:1020F00006AE109F86E8030094F8441001F0FF0537
:1021000011B90AB103B127B940F2D9112720FEF75E
:1021100075FB96E8030004F1280C636384F83850DB
:102120009DF8443084F88B5084F83E5084F88850F1
:1021300084F880506584A58784F8395084F83A5033
:1021400084F830506566E566A4F87050A56425658E
:10215000A4F8545084F88A30626227648CE8030043
:10216000E56A0CF0B5FD0DF0DDFB95F97C000CF097
:1021700017FEAE6A286A0CF019FE30460CF074FFA8
:1021800095F8A4000CF01CFEAB8E4E2B02D9EB8E02
:102190004E2B01D80CF0C6FC94F82860002E40F0BD
:1021A0009B8014F0EFFD95F87420764B4FF47A7114
:1021B00053F8223003F5FA73B3FBF1F346331918E1
:1021C00030460CF073FE704B18680CF053FF6B69CF
:1021D000E26AC4F88430AB6992F87460A36792F83D
:1021E0008D30A3F12801012903D992F88E102829F6
:1021F0007DD194F82830002B76D192F832123046F7
:1022000010F02FFF064605F13C073146384613F023
:10221000EBFF314613F0C6FAB5F8483095F8751063
:10222000834228BF0346384684F87F3013F08AFF84
:1022300095F8751095F893700429B5F8506008BFAB
:10224000032113F0AFFA0FB9043080B2864228BFE1
:102250000646F6B284F8896006F026F828B106F042
:1022600029F8B04238BF3046C6B294F8288084F8C6
:102270005C60B8F1000F60D195F89230B3B195F879
:102280007400FFF7ABFAFB22012305F1F801D5E951
:102290003A67029205F5847203900420CDE900327A
:1022A000CDE9048332463B460DF0DEF90120FFF70D
:1022B0005BFB002323606360A360B5F88630638016
:1022C0002B88238095F8A4302371AB6F0BB10122CA
:1022D0001A6009B0BDE8F08314F054FD95F875203C
:1022E00000F1650101206CE792F8C21287E7233BF9
:1022F000012B11D8262911D094F82830CBB192F8AF
:102300002E315A0713D413F001017FF478AFC3F3D1
:1023100040035B00D9B272E726290AD194F828302D
:102320003BB192F82E3192F86D201340E9E7042179
:1023300065E7032E08BF042665E795F89330B3B12F
:1023400095F87500FFF74AFA0123002205F1F8011C
:10235000D5E93C89CDE9042305F58472CDE9026015
:10236000CDE90032022042464B460DF07DF90120B6
:10237000FFF7EEF9E36AD3F8D8010CF0C3FE98E753
:1023800038160020CC740400DC000020014B93F8C8
:102390008800704738160020044B93F8800018B965
:1023A00093F83D00C0F30010704700BF38160020BE
:1023B000024B93F83D00C0F3C00070473816002070
:1023C000014B93F88B00704738160020D518000099
:1023D000751C0000FD1700003D1700000D4B032188
:1023E000186830B50D4690F8A52090F84B400132A2
:1023F000B2FBF5F303EB4303D31ADAB244FA03F367
:10240000DB0703D4013911F0FF01F0D180F8A520DA
:1024100030BD00BFC4160020014B186810F0EEBE9E
:10242000C416002008B50BF02FFF014B187008BD33
:1024300070000020054B10B41C68827C836804F196
:10244000420194F8410010BC13F07EB8C41600207D
:102450002DE9F041054617461E460C4619B1AB68FA
:1024600053BB01201FE0DFF86080D8F8000000F1C6
:102470005B0390F85A2000F1780190F87E0013F089
:1024800063F8D8F804305A79D8F80030082A04D014
:1024900093F84E40A21A5442544193F85630012BFF
:1024A000DDD023B1002000F00100BDE8F08100285C
:1024B000D5D1002CD3D1F5E7002FD2D1002EF1D009
:1024C0002846FFF7B7FFEEE7C4160020024B186856
:1024D0006C3002F061B900BFC416002038B50F4C53
:1024E000FFF7F4FF656802F011F963682860186867
:1024F00020B940F2EC413220FEF780F911F075F876
:1025000010B940F2EE41F6E70CF0CAFD00200CF0E5
:102510002BFE636804221A7138BD00BFC416002068
:1025200038B5194D04466B681B79022B04D940F667
:10253000FF013220FEF762F92B68027C83F8A420A9
:102540001A44C168996692F87C2183F87821426820
:10255000C3F88820037A022B0ED00CF0B9FB0CF0E4
:102560002FFE0BF033FF09480CF084FD08480CF0F7
:102570007BFD08480CF01AFC637C23B12B685B6E72
:102580000BB101221A6038BDC4160020E8000020FB
:1025900055555500D6BE898E38B505460C4604F013
:1025A00095FD420704D4A37803F0E003402B30D01C
:1025B00004F08CFD830704D4A37803F0E003202B00
:1025C00027D0237803F03F03242B22D80CF0C0FA45
:1025D00094F90030A278002B637802F01F02B4BF98
:1025E0004FF496711E2143EA02234B431A1AB2F5A7
:1025F000877F0ED398420CD8074B2946186823884A
:10260000A0F87931A37880F87B31BDE8384011F02B
:10261000D2BA002038BD00BFC416002008B5074B51
:1026200093F900207F2A04D140F292313220FEF744
:10263000E5F802707F221A7008BD00BF700000200C
:1026400010B504788EB004F00F0404A9224611F0EE
:102650000BF8FFF7E7FE042C33D11B4C059A2368D7
:10266000107893F8781088422BD1507893F879102D
:10267000884226D1907893F87A10884221D1D07878
:1026800093F87B1088421CD1107993F87C10884213
:1026900017D1517993F87D20914212D19DF82120D4
:1026A00093F87E309A420CD10DF10F00FFF7B6FF80
:1026B0009DF90F3004A90093237B227A606810F003
:1026C000A6FF03200EB010BDC41600202DE9F04374
:1026D00087B0194C06460F460DF11700FFF79EFF15
:1026E00065682B79032B20D02B79062B14BF4FF074
:1026F00001094FF00309236803F142080CF022FAA4
:102700009DF917303A46CDF80C9031460293237A62
:10271000CDE900034346284602F0C4F840B16068A2
:1027200007B0BDE8F04302F059B84FF00009E2E706
:1027300007B0BDE8F08300BFC41600202DE9F043C8
:10274000304D87B004460F466E68B3798BB3D5F829
:10275000008098F8953033B90378002B14BF02231A
:10276000012388F895303379062BDAB225D0072A71
:102770000CBF4FF002094FF001090DF11700FFF7F0
:102780004DFF0CF0DFF99DF91730CDF80C903A466B
:10279000029321462B7ACDE9000308F1420330462B
:1027A00002F080F828B16378DB0609D4686802F08B
:1027B00015F8002007B0BDE8F0834FF00309DCE70F
:1027C000A1690220FFF7E8FEB8B100222B6883F868
:1027D000962062696AB15178C1F3031183F89710AA
:1027E0001178527802F00F0241EA0222A3F89820F1
:1027F000E0E7FF2283F89720DCE7686802F01EF824
:10280000D7E700BFC416002010B504468AB0FFF712
:1028100009FE237803F00F03072B02D001200AB032
:1028200010BD6946204610F0B2FF684611F057F817
:102830009DF80030002BF1D19DF80130DB07EDD57C
:102840000C4C019922689DF8110002F1780392F86E
:102850007E2012F079FE0028E0D020680121A0300F
:1028600012F07BFBFF216846FFF768FF0130C0B222
:10287000D5E700BFC41600200D4A536810B519797A
:10288000022904D841F2B7413220FDF7B7FF197988
:10289000082902D941F2B841F6E71B79126903F120
:1028A00080439268033BBDE8104052F8233018473C
:1028B000C416002010B5054C637A2BB10CF080FCD7
:1028C0000BF084FD0023637210BD00BFC41600200E
:1028D00010B5054C23792BB10CF072FC0BF076FD92
:1028E0000023237110BD00BF181E002010B5094C35
:1028F000FFF7E0FF012263681A7100232268A2F843
:10290000793182F87B31FFF7E1FD2068BDE81040A6
:1029100011F018BBC416002008B5044B586801F02C
:102920008DFFBDE8084010F076BC00BFC416002043
:10293000062938B51D469DF8104019D908291BD81D
:1029400002B18CB143689BB912B94378DB0615D448
:102950000B4B5B68186810F069FE00B134B92DB9F3
:1029600004F012FF00F00104204638BD0120F9E711
:102970009DF814402C43F7E70024F5E70124F3E722
:10298000C416002038B50D1E04460CBF05200320D8
:10299000104405F00FF8094B587270B15DB9033C53
:1029A000012C8CBF502455240BF0EAFC2046BDE8D6
:1029B00038400CF0F9BB4024F6E738BDC4160020BF
:1029C000F8B53D4CFFF782FD656801F09FFE636836
:1029D0002860186820B940F249413220FDF70EFF07
:1029E00010F003FE054610B940F24B41F5E72368AD
:1029F00093F8A6306BB123681A6D93F8A710C3F84B
:102A0000102193F854200A4383F85420002283F8BD
:102A1000A620206890F8A430034493F87C71636882
:102A200080F878711A7952B11B79012B07D00021F7
:102A300011F0C1F818B9BDE8F840FFF757BF236897
:102A40001E4A93F8A530D05C0CF0BAF9236893F8CD
:102A5000A420134493F87C61022E2BD004D8012EBD
:102A600005D040F2FC71B8E7F31E012BF9D801F054
:102A700047FE31460CF0C2F828460CF011FB3146F7
:102A800001200CF0ABF97B1E2A46384659425941C9
:102A9000FFF778FF626808210023517121722168D5
:102AA000D3801372E37281F89530A37223730323EA
:102AB0001371F8BD0D20DCE7C4160020CC710400B2
:102AC000124A10B5536800B931B9184601F0B6FE84
:102AD000BDE81040FFF70ABF1979082904D841F270
:102AE00087413220FDF78AFE19790C2902D941F27B
:102AF0008841F6E71B79126903F180435268093B6C
:102B0000BDE8104052F82330184700BFC41600201B
:102B100010B50B4C0521206811F04DF830B96068F4
:102B200001F08CFEBDE81040FFF7E0BE23680120F5
:102B300093F878110CF05EFB63680B221A7110BDDC
:102B4000C4160020054B1A6892F85420920703D04F
:102B50005B68186801F004BE58697047C41600200D
:102B600070B5304D06466B681A79032A0BD01A7976
:102B7000042A08D0FFF7E6FF044640B941F2BF310E
:102B80003220FDF73BFE186810F02FFDF4E72B68AC
:102B900093F8543013B941F2C531F1E776B113F02F
:102BA00079F930B16B681A79022A0ED841F24531B1
:102BB000E6E7204613F089F90028F3D16B681A790B
:102BC000022A17D841F2A531DAE71A79082A02D980
:102BD00041F24631D4E71B7920462A6903F180434C
:102BE0001269033B52F8233098470C2812D941F25E
:102BF000D831C5E71A79082A02D941F2A631BFE7D0
:102C00001B792A6903F180435269033B52F8233050
:102C10009847EAE72B69DB68BDE8704053F820303D
:102C2000184700BFC416002038B5FFF78BFF0446D5
:102C300020B940F213513220FDF7E0FD0B4DFF208B
:102C40002B6893F878110BF0D9FF20460CF028FA86
:102C50002B6893F87831033B012B94BF2820002088
:102C60000CF082FA6B6807221A7138BDC416002076
:102C700038B5134C0E20236893F878110BF0BEFF83
:102C8000FFF760FF054620B94FF4A0613220FDF741
:102C9000B5FD0CF005FA236893F87831033B012B5E
:102CA00094BF282000200CF05FFA23682A460021F8
:102CB00093F87801FFF766FE636808221A7138BD41
:102CC000C416002010B5074C606801F087FDFFF7BF
:102CD000A9FB20680021A03012F03FF9BDE81040A8
:102CE000FFF704BEC416002007292DE9F04306466D
:102CF00087B00F4690464568634C23D11DBB002A20
:102D000049D1D4E9001091F8543013F0030218BFF0
:102D1000012213F00403827103D033785A1E534208
:102D20005341C37191F894304BB12368D3F89000AC
:102D3000503014F001F810B9636801221A7207B01C
:102D4000BDE8F0833DB32946707C10F09CF9072F55
:102D5000814661D1637A63B158B1B8F1000F52D0A6
:102D6000656812F035FC636868715B792372012332
:102D7000A37263685879082855D17168707C13F084
:102D8000D1FF6268054671680532707C04F002FD6F
:102D90006368002859D0236893F8540010F00300AA
:102DA0000AD093F84C3039460195304662689279E2
:102DB00000924246FFF7BCFD62682368907193F869
:102DC000540010F0040009D093F84D3039460195B5
:102DD0003046D27900924246FFF7AAFD2B4B656838
:102DE0001B68E8711BB141463046984728727268EB
:102DF0006AB3717C236883F87E10116899679288A2
:102E0000A3F87C2023E0236893F878110129A7D147
:102E1000284604F0A1FD6072637A002BA9D0B9F1B5
:102E2000000FA6D09CE704AA0DF10F0104F07CFD71
:102E300020B940F6B1313220FDF7E0FC04A99DF83D
:102E40000F0013F06FFF0546A5E7D880187262687F
:102E5000137AB3B9D388003B18BF0123B0680028A8
:102E60003FF46DAF072F7FF46AAF517908293FF423
:102E700066AF002B3FF463AF04F08CFD0123E372D7
:102E80005DE70123EAE700BFC4160020E40000204C
:102E90002DE9F84FDFF8C0A0914604468846DAF8DD
:102EA00000201F468168807C10F0EDF892F84860A1
:102EB0009AF80930054686F00106002B3AD092F8C0
:102EC00054305B071DD592F84D30D3B192F84EB017
:102ED000BBF1080F23D0584604F03AFC3043C6B289
:102EE00045B39AF80B303BB312F07CFB0023044649
:102EF0008AF80B3089F8004088F800503E70BDE831
:102F0000F88F636823B1DAF8043093F805B0DFE78F
:102F1000DAF80430186810F089FB0028F3D1CDB13D
:102F20009AF80A1031B9A06804F016FD04468AF830
:102F3000090038B90024DDE7A168584604F0E4FD33
:102F40000446D7E712F044FB0828F3D0DAF804303F
:102F50005871CFE72C46CDE7C41600202DE9F04389
:102F6000874D87B004462E6896F85730002B47D01F
:102F70006F68BB7923B9FA7912B93A7A002A3FD03F
:102F800094F80080B8F1010F72D0B8F1020F00F090
:102F9000D380B8F1000F33D196F8542091072FD089
:102FA0000BB93B7A63B3637813F0100FC3F30017C8
:102FB0000CBF012208229A4322D10022A3688DF877
:102FC00014208DF81520002B47D00DF1160305AA0B
:102FD0000DF115012046FFF75BFF2B6893F8416068
:102FE0009DF8143083B92046FFF724FA70B92B6896
:102FF00093F85530023B012B02D89DF8153083BB66
:10300000032007B0BDE8F08346F002065FB30DF180
:1030100017004FF00008FFF701FBD5E9003903F175
:1030200042070BF08FFD9DF917303246CDF80C802A
:10303000214602932B7ACDE900033B46484601F036
:1030400031FC0028DCD0A1690120FFF7A5FA002897
:10305000D6D02B6883F896803BE0FF268DF816309B
:10306000D4E7FE26D2E731462046FFF72FFBC7E71D
:1030700096F878216378022A3DD103F01903192BC1
:10308000BED196F854305A0739D40DF11700FFF726
:10309000C5FAD5E9003703F142060BF053FD0023D2
:1030A000FF22214603939DF9173002932B7ACDE935
:1030B00000033346384601F0F5FB0028A0D0A16993
:1030C0000120FFF769FA00289AD02B68012283F8C3
:1030D00096206269002A4ED05178C1F3031183F81B
:1030E00097101178527802F00F0241EA0222A3F8F9
:1030F0009820022085E703F01803182BC0E76168C9
:1031000000232046B1FA81F11A464909FFF7A0F9D8
:1031100000283FF475AFA3692A689B781F2B04D859
:1031200092F84930002BB0D16AE703F0E003402B5E
:10313000ABD192F84A30F5E796F854309B073FF44C
:103140005FAF637803F01803182B7FF459AF0DF1CC
:103150001700FFF763FA0BF0F5FC0023FF2221466E
:1031600003939DF9173002932B7ACDE9000306F102
:103170004203384663E7FF2283F89720B9E700BF90
:10318000C4160020014B586801F058BBC41600203B
:103190002DE9F04F044689B0062900F2C580DFE82A
:1031A00011F06000E7000700C300C300C300260061
:1031B0006E4D0BF08FFE2F6897F85430980714D09F
:1031C0006E68B3798BB10DF11F00FFF727FA9DF9F7
:1031D0001F3002222146029330462B7A0193FF23AF
:1031E000009307F1420310F002FA03201FE05F4D45
:1031F0006E68B379002B00F097802F6897F8542001
:10320000910717D50DF11F00FFF708FA9DF91F3040
:1032100030460622029321462B7A0193FF23009326
:1032200007F1420310F0E3F9002309202B7309B0E2
:10323000BDE8F08FD30777D5570701D50BF04AFECD
:103240000DF11F00FFF7EAF99DF91F202B6802928C
:103250002A7A42330192FF220092062221466868B0
:10326000C1E7424D2B6893F85420560737D569685B
:10327000CA79002A33D0426893F85B0016788642F8
:1032800055D1567893F85C00864250D1967893F8E1
:103290005D0086424BD1D67893F85E00864246D1D7
:1032A000167993F85F00864241D1507993F86020F7
:1032B00090423CD1627C93F85A00101A424242413B
:1032C00093F8560001284ED0002A4CD193F84E3086
:1032D000082B02D04A799A4245D00BF0FBFD6E686C
:1032E000B379002B3DD02F6897F85420930720D551
:1032F0000DF11F00FFF792F99DF91F3030460022B3
:10330000029321462B7A0193FF23009307F1420396
:1033100010F06DF9012309202B736B68DA79002A0C
:1033200085D19B79002B82D10BF0D4FD5DE7002283
:10333000C6E7D60715D5500701D50BF0CBFD0DF12B
:103340001F00FFF76BF99DF91F202B6821460292A1
:103350002A7A42330192FF2200920022686810F01C
:1033600046F90320D9E70A20D7E700BFC41600209A
:10337000644D81682A68807C0FF085FE92F8543095
:103380006E68074692F84890590796F806A096F896
:1033900007B089F0010940F18E8092F84D30002B82
:1033A00000F0898092F84E60082E00F0868030464A
:1033B00004F0CEF949EA00005FFA80F9002F7ED0D0
:1033C0003046A16804F0A0FB06462B6893F8542011
:1033D00093F84180520749D5626893F85B101078E2
:1033E00088426ED1507893F85C10884269D1907809
:1033F00093F85D10884264D1D07893F85E108842CB
:103400005FD1107993F85F1088425AD1517993F8BF
:103410006020914255D1627C93F85A10501A424272
:1034200042416968497908294DD093F84E30591ABC
:103430004B424B41002E48D1B9F1000F47D02046F6
:10344000CDE90423FEF7F6FFDDE90423BBF1000F0D
:103450000AD0296891F8561001294ED021B9002AC6
:103460004BD108B1002B4AD10BF034FD2B6893F8F7
:1034700054309B073FF4B9AE0BF02CFDBAF1000FAE
:103480003FF4B3AE2046FEF7D5FFD5F8009000B963
:10349000FEB10DF11F0048EA4608FFF7BFF89DF99D
:1034A0001F3002932B7A01935FFA88F30093012275
:1034B00009F14203D2E6767976E7002685E73E46B3
:1034C00083E70022ADE70023B4E70120BEE73046E2
:1034D000BCE799F85530023B012B3FF686AE002F32
:1034E0003FF483AE0DF11F00FFF798F89DF91F30F0
:1034F00002932B7A0193FE23D8E70028B4D00A2048
:1035000095E600BFC416002030B58BB00546FEF727
:1035100089FF114B1B6893F8543013F0060F04D049
:1035200001229621002014F094FB2C78694628464D
:1035300004F00F04224610F097F800222146684656
:10354000FFF7D2FB21466846FFF722FE0446FFF74D
:10355000B1F920460BB030BDC416002030B5054689
:103560008BB0FEF75FFF2C7828466946294D04F0A2
:103570000F0410F00CF92B68072C16D193F8781172
:10358000684610F00DF9002221466846FFF7ACFBB3
:103590002B6893F87831022B32D017D8012B1AD030
:1035A0004FF492513220FDF729F993F8542012F08C
:1035B000060FE8D093F8A420134493F87C21012A45
:1035C000E1D19621002014F044FBDCE7033B012B02
:1035D000E6D8072C19E0062C02D00BD8022C0BD809
:1035E00021466846FFF7D4FD0446FFF763F92046FD
:1035F0000BB030BD072C09D00BF06CFC0324F4E7B2
:10360000072CFBD19DF80030012BF7D16846FFF75E
:10361000A5FCE9E7C416002038B5154D2C6894F8D0
:103620004830F3B16FF00043D4E920129A4208BF4A
:10363000B1F1FF3F15D014F0A4FBD4E92023904250
:1036400099410ED32B6893F848305BB92D6804F08C
:1036500065F9044614F095FB064BE4FB0301C5E94C
:10366000200138BD012004F01BFA0028F9D0EDE755
:10367000C416002040420F0010B50446FEF750FF6C
:10368000237A032B04D140F631113220FDF7B6F82E
:103690000BB9FEF7A3FE064B1B6893F958000BF01D
:1036A0007FFBFFF78DF9BDE81040FFF7B5BF00BF06
:1036B000C416002070B51E4D06462A6892F87B316C
:1036C00092F879015F2B4FEA531100F03F0097BF4A
:1036D000184B00245B18DC780BF072FB2B6893F915
:1036E00058000BF05DFBFEB12B682246996E01205D
:1036F0000BF0DCFB2B68214693F89630022B14BFAD
:10370000FF2040200BF07AFAFFF71CFA2B680646E0
:1037100093F8951019B902462046FFF733F9304661
:10372000BDE870400BF0BCBC22468221DFE700BF41
:10373000C4160020CC710400F7B52C4C0746226853
:1037400092F87B315F2B4FEA531197BF284B00252E
:103750005B18DD78936E13B10120FFF7ABFF236890
:10376000D3F888000BF0CEFC236893F8542091071F
:1037700003D593F89610022905D052070ED593F879
:103780009620012A0AD1042D26D193F85930012B15
:103790000CBF0321042100200BF02CFDD4E90063B1
:1037A00018689A36D7B90FF041FF63680746186862
:1037B0000FF042FF21680246304691F8963091F8AA
:1037C00078110091394610F03EF8236883F878515B
:1037D0000023A37203B0F0BD2946DCE70FF038FFE9
:1037E0000146304610F024F8EFE700BFC416002071
:1037F000CC71040008B50120FFF79EFF024B0622A2
:103800005B681A7108BD00BFC416002008B500200F
:10381000FFF792FF024B05225B681A7108BD00BFDB
:10382000C416002010B50446FEF77AFE237A032B57
:103830000AD1194B1B68986E20B140F6471132200F
:10384000FCF7DCFFFFF736FF237A012B06D003D904
:10385000023B012B12D910BDFEF7C0FD0E4C2368B0
:1038600093F958000BF09CFA2368002283F8952006
:10387000FFF7A6F8BDE81040FFF7CEBE064B1B6869
:1038800093F895301BB9BDE81040FFF7BFBFBDE806
:103890001040FFF7AFBF00BFC416002008B5044BAF
:1038A000586800F09BFFFEF7BDFD012008BD00BF7A
:1038B000C416002008B5FEF7B5FD054B00211868B9
:1038C000A03011F04AFBBDE80840FFF70FB800BF79
:1038D000C41600202DE9F3414C4D00230E46074647
:1038E0002A6841F27070116D53720B885381CB6955
:1038F000A3F57A74844295BF4FF47A7040F2E240A7
:10390000B3FBF0F3B3FBF0F398BF03F550639BB246
:1039100013848B8C5384CB8C93844FF47F43D38458
:103920004FF6FF73138517B30121304612F0ECF9FF
:1039300001463078C0092C6894F8483004F114022C
:10394000FBB10FF0A0FBE0B10B6863618B88287AB4
:10395000938004F10E0208284AD004F10D0103F00F
:10396000E3FF88B941F20E413220FCF747FF694678
:10397000686912F091F86B6969461878C0F3801095
:10398000D9E700236361E2E72C68637B04F11A083E
:1039900043F00203637347B30021304612F0B4F9D9
:1039A0000368C4F81A308388A8F804302B6893F9A8
:1039B0005810186D04F052F92868154912F034FBBC
:1039C00028681449036D2A301A88A0F8092093F852
:1039D0009630C37212F031FB0221286801F022FAFE
:1039E000FEF774FD02B0BDE8F08104F17800D7E77E
:1039F00094F87E306373A36FC4F80E30B4F87C3053
:103A000093800023C4F81A30E383CFE7C416002064
:103A1000E33001009F30010008B5FEF74BFF044B77
:103A200000205969FFF756FFBDE80840FEF7F4BCD7
:103A3000C41600202DE9F04705468AB0FEF7F2FCD7
:103A40002B7803F00F03082B05D04FF001084046F8
:103A50000AB0BDE8F087694628460FF036FE9DF8AB
:103A60000080B8F1000FF0D19DF8013003F003039E
:103A7000032BEAD12D4C266896F84D30002B3BD015
:103A800096F84E70637A002B39D14FF0000906F199
:103A9000780396F87E2001999DF8110011F054FDED
:103AA000B9F1000F01D10028CFD0236893F84190DD
:103AB00003F1420A96F8483023B1384604F05EF824
:103AC000024638BB52469DF812A0029950460FF0AC
:103AD000DAFA134606464A46504611F035FDE0B183
:103AE00020680121A03011F038FAFEF7E3FE2946E4
:103AF0000120FFF7EFFEAAE763685F79C2E711F0E4
:103B000067FD0828C1D0C31B2072D3F1000949EB1F
:103B10000309BCE74FF00109D5E7002E95D00299C3
:103B2000384603F0F1FF0028DAD18EE7C4160020F2
:103B30002DE9F8436D4F0023064689467869D7F88A
:103B40000080037043700BF0C7FA054630B90025BA
:103B5000032004F0FFFA2846BDE8F8837C69032EB1
:103B6000237834D123F00F0343F0030323700C2395
:103B70006370D8F878307869C0F80930B8F87C30CC
:103B8000A0F80D3098F87E1011F09AFF00217869A6
:103B900014F06CF83B6893F8482003F1420993F85D
:103BA0004180002A7FD14C46236841467869C0F89D
:103BB0000330A388A0F8073011F075FF4C4BD3F801
:103BC0000C32002B00F084800BF084F9BFE723F067
:103BD0002F032222396843EA4913627043F0050338
:103BE00023700B6D1B6AC4F80F300A6D936A180AB4
:103BF000E3741B0C2075637592F87E00138E002809
:103C00004BD04FF0640CB3FBFCF3A375D36A0028D0
:103C100046D06420B3FBF0F3E375C3F3072341F20E
:103C200070702376D369A3F57A7C844595BF4FF4F1
:103C30007A7040F2E240B3FBF0F3B3FBF0F398BFCD
:103C400003F550639BB263761B0AA376938CE376ED
:103C50001B0A2377D38C63771B0AA377D2F897309C
:103C6000C4F81F3092F89B3094F8242084F8233055
:103C70000B6D22F01F0293F8A23003F01F031343D1
:103C800084F8243003F048FA94F8243003F01F033A
:103C900043EA401384F824306BE740F2E24CB2E789
:103CA00040F2E240B6E793F8542052070DD593F85E
:103CB0004D2052B193F84E0003F060FF04460028F7
:103CC0003FF471AF4FF001086EE77B685879F3E776
:103CD000052E7FF440AF3B6821681A6DC2F80A10C8
:103CE000A188D1811B6D83F8098034E7C4160020B8
:103CF00000A0085010B500210320FFF719FF18B9E4
:103D0000BDE81040FEF7F2BD074C032120680FF01C
:103D100052FF0028F4D0012108460BF06BFA6368CB
:103D200009221A7110BD00BFC416002038B5184D05
:103D30006B6818680FF059FC044620B94FF4AB616A
:103D40003220FCF75BFD6B680A22002128681A719B
:103D500001F068F82B6805201A6D237892F89640D8
:103D600004EA531404F001042146FFF7E1FE18B9F8
:103D7000BDE83840FEF7BABD042128680FF01BFFEC
:103D80000028F5D02B681B6D83F8964038BD00BF26
:103D9000C416002010B5114C0C2201216368206864
:103DA0001A7101F03FF800210520FFF7C1FE18B994
:103DB000BDE81040FEF79ABD062120680FF0FBFE1B
:103DC0000028F5D02368012093F878110BF012FA3F
:103DD000236801221B6D83F8962010BDC4160020B5
:103DE0002DE9F041044690B00D46FEF71BFB237809
:103DF00003F00F03072B06D00124FFF7C3F9204679
:103E000010B0BDE8F0812046A14C06A90FF0BFFC20
:103E1000206806A99A300FF034FD23689DF8181029
:103E200093F89620914248D1032D03D193F897201F
:103E3000FF2A13D09DF8192012073ED50B9993F84D
:103E400097004A78B0EB121F37D1097802F00F02C1
:103E5000B3F8983041EA02229A422ED12A4607212D
:103E600006A8FEF741FF6368DA880AB91B7A23B314
:103E70000023089E8DF814308DF815308DF816301B
:103E8000F6B10DF1160305AA0DF1150106A8FEF70E
:103E9000FFFF23689DF8146093F8415045EA4605FA
:103EA000EDB29DF818209DF81580012A9DF8163076
:103EB00008D0022A7AD0002A4BD0FFF763F914E029
:103EC000FF25EEE79DF81900226800F0090792F837
:103ED0009A10092F02D041B1070706D592F8542055
:103EE000500704D463689B799BB9012459E0626848
:103EF000D279002AF6D0324606A8FEF7A9FA0028A1
:103F0000F0D02068A03011F04AF80028EAD00C2444
:103F100047E0236893F854309A07E6D09DF81930AB
:103F20009B0700F1BC80FF2106A8FEF7CFFBDCE772
:103F300006A8FEF77FFA002840F0B480236893F8C3
:103F40005530023B012BD0D8B8F1000FCDD0FE2167
:103F5000EAE7236893F854309F07C6D09DF81930DC
:103F6000980721D56EB906A8FEF764FA48B9236808
:103F700093F85530023B012BB7D8B8F1000FB4D0FD
:103F8000FE2563681B7A33B1424B1B681BB10D9849
:103F900008B10F999847294606A8FEF7CFFB441CA5
:103FA000E4B2FEF787FC2AE7FF25EAE7226892F8E9
:103FB0005420910799D061688979002995D09DF89E
:103FC000197007F0090109298FD1920707F002073C
:103FD00062D5002F38D026B30DF11700FEF71EFB77
:103FE00000210320FFF7A4FD0646D4E9003803F1C1
:103FF00042070AF0A7FD01232A4606A903939DF96B
:1040000017300293237ACDE900033B46404600F087
:1040100049FC76B900283FF468AF606800F0DEFB29
:1040200063E7002B8AD006A8FEF704FA0028D3D154
:1040300084E700283FF459AF2068A03010F0AFFFAC
:104040000028EAD00B24ACE70DF11700FEF7E6FAE2
:1040500039460320FFF76CFD0646D4E9003803F12A
:1040600042070AF06FFD01232A4606A903939DF932
:1040700017300293237ACDE900033B46404600F017
:1040800011FC0EB10028D7D1606800F0D7FB2CE7F7
:10409000C4160020E0000020002F3FF444AF002EA3
:1040A0003FF446AF29463FE7036D10B5044623B9F8
:1040B0004FF456713220FCF7A1FB022207494272ED
:1040C0001B884381FF2380F827304FF6FF73038559
:1040D00011F0AAFF0023236510BD00BFE3300100EB
:1040E000F8B5194F064602F09BFF012178610020C8
:1040F000FDF71AF8054620B940F688013220FCF792
:104100007DFB4FF4C072002114F0B7FA012108467C
:10411000FDF70AF8044620B14FF4C072002114F0F4
:10412000ACFA3B6913B940F69201E7E730460FF06D
:10413000B5F828460FF0ADFD24B12046BDE8F840A3
:104140000FF0A7BDF8BD00BFC4160020014B024A06
:104150001A617047C4160020D8010020014B024AA2
:104160001A617047C4160020F0010020036810B5E2
:1041700023B940F676113220FCF740FB044A136065
:104180006C3353601369BDE810401B68184700BFCB
:10419000C416002008B5044B586800F04FFBBDE87A
:1041A0000840FEF7A3BB00BFC416002038B5044684
:1041B00090F8400000F0FD0004F14201003818BF03
:1041C000012084F8410003F051F994F84030023B9B
:1041D000DBB2012B94BF0123002384F8483015D8AB
:1041E00003F09CFB054613F0CCFD094BE5FB0301F6
:1041F00094F84830C4E9200143B1002003F050FC9A
:1042000020B94FF422613220FCF7F8FA38BD00BF24
:1042100040420F000149363011F009BFC1300100A2
:1042200010B5084C0222636820681A7100F0C8FCBF
:1042300038B920680FF092F92068BDE810400FF0FF
:1042400081BE10BDC4160020013808B5C0B20A4BAB
:1042500041B1032801D8185C08BD4FF4E97133203F
:10426000FCF7CCFA032802D803441879F4E74FF49A
:1042700049710620F4E700BFD271040008B50EF0C2
:10428000E3FD054AD2E84F3F0133DBB2C2E8413FCC
:104290000029F7D108BD00BFDC160020024BA0F1B9
:1042A00008015868FFF7EABFDC1600202DE9F84F37
:1042B0001E463C4B0D46934600211A7804689DF833
:1042C00028709DF82C809DF930909DF834A00160F5
:1042D00032B9A4F108015868BDE8F84FFFF7CEBF26
:1042E0001A2204F1090014F0C8F90123A372BBF1EA
:1042F000060F4FD8DFE80BF00433394E434E3D0034
:10430000E37A23F0130343F01303E372012304F170
:104310000E0241462846237547F6FF7384F818902D
:10432000E38204F10D030FF034F9E37A5B0736D52D
:10433000BA1E04F11C03012A8BBFAA6832681168F7
:10434000E2618ABFE161B28892889A80E7760023B1
:10435000237215492046BDE8F84F11F068BEE37A94
:1043600023F0150343F01503CFE7E37A43F010037E
:10437000CBE7E37A23F0120343F01203C5E7E27AB6
:104380004AF01A0A22F01B020AF01B0A42EA0A0249
:10439000E272BBE740F244413320FCF72FFAFF23DF
:1043A000E376D4E7DC160020AD4300002DE9F04FA2
:1043B00005468DB00C4600200121FCF7F1FE0646B3
:1043C00020B94FF4F0713320FCF718FAA8300FF041
:1043D000E5FB18B196F85430042B2ED130460EF080
:1043E00052FF50BBB64C04F1080604F10C07AB6A4F
:1043F00093B92846FFF752FF4FF40073ADF804302D
:104400009DF80430002063F307009DF8053063F346
:104410000F200DB0BDE8F08FA96A0B68B142AB6206
:104420004FF000030B704B708B70CB70DFD0B94234
:10443000DDD06068FFF722FFD9E7AF6A37B3A14B41
:104440009F4226D0043B9F4223D007F13B0A4FF006
:10445000000802F0F3FD8146B8F1000F40F0008142
:1044600002A950460FF093F9B9F1000F16D004F1EC
:104470000D00EE7A16F0100613D09DF8186005991D
:1044800032460DF0FDFD4FF0010828E005F1330A3A
:10449000DDE74FF001084FF0000ADAE704F11C00F5
:1044A000E7E7002FEFD09DF80830022BEBD0014654
:1044B00095F83230E522504611F070FC95F8323014
:1044C00006460344504685F8323011F05FFC95F8FB
:1044D0003280A8EB0000D0F1000848EB0008B9F1E9
:1044E000000F00F0C180EB7AD90604D45B216AE7A3
:1044F000C8460026F7E713F0040FAA7A95F80DE0F6
:1045000004F1060005F10E0C30D0E97EFE292DD114
:104510001123E27084F805E0237013010233637005
:1045200001232371D5F80E30C4F80630BCF80430EE
:1045300083802173EB69C4F80D302B8CA4F8113003
:104540002B7EE3745E4E06F1080A57453BD1237972
:10455000022205F1280062F3461323710FF035F8AB
:1045600002272846FFF79AFE04263FE006F10A03D9
:104570000321E27053432170023384F805E0637035
:10458000D5F80E30C4F80630BCF8043083802673AA
:1045900026442B7E7373EA7A12F0080002D00423BB
:1045A0002371CFE702F00303032B01D12071C9E788
:1045B000520701D50123F3E7022BF1D00BB921718A
:1045C000C0E7A221FFE606F10C094F4515D105F120
:1045D00028000EF0FAFF6A7D6AB92379042662F397
:1045E0004613237102272846FFF758FE8DF8046012
:1045F0008DF8057004E70026F4E747B3B8F1000F23
:1046000020D005F1280840460EF0DFFF39467068DB
:10461000FFF734FEAB6A0022534585F8322096D06E
:104620004B4505D12379404662F34613237195E744
:104630009DF80830022B05D1237923F06803012768
:10464000237191E72379012262F34613F7E7EE7AAB
:1046500016F01006CAD0237967F3461323717FE75B
:1046600000287FF445AF0646042305F1230123709B
:1046700006F11803AA7A5343E270221D02336370D5
:1046800005F10B0353F8040B8B4242F8040BF9D1EC
:1046900095F814A095F815B002F00EFDC1F340296D
:1046A00050464946FFF7D0FD6073BBF1000F04D0C0
:1046B00049465846FFF7C8FDA073E67642E700BFBB
:1046C000DC160020E8160020343270B5054692B2A0
:1046D0000C461E460EF080FB25B1034A556014744B
:1046E0005674147070BD00BFDC16002010B5034C6A
:1046F00060680EF093FB237C237010BDDC16002055
:10470000014B587C704700BFDC16002038B5134DB4
:1047100068680EF089FB044620B940F25511332039
:10472000FCF76CF8D5E84F3F013BDBB2C5E8413FF1
:104730000029F7D104F108033422184613F09DFF35
:1047400047F6FF720121E462E283FF22627584F87A
:104750002320E27C61F34612E27438BDDC160020AF
:1047600038B5436A044693B90A4D68680EF05CFB9D
:10477000606220B94FF4B7713320FCF73FF8D5E8F9
:104780004F3F013BDBB2C5E8423F002AF7D1606AE8
:104790003B3038BDDC160020036810B504468BB1F1
:1047A0009A6A22B140F28B113320FCF727F8596A3C
:1047B00041B101F108008342074B08BF22605868ED
:1047C000FFF75CFD216831B1034B08395868FFF7EA
:1047D00055FD0023236010BDDC16002038B50468A9
:1047E00005469CB11349204611F02AFC124B0022C9
:1047F0001A735A739A73DA73EFF3108272B6A16A5E
:104800000C3399B9A362E36202B962B62C68616A9B
:1048100049B101F108039C4203D0074B5868FFF7E8
:104820002DFD0023636200232B6038BDE16A0B601D
:10483000E9E700BFAD430000DC16002070B5066854
:10484000044656B3716A154D41B101F108039E4209
:1048500002D06868FFF712FD0023736221684E7D65
:10486000B6B100232B726B72AB72EB72EFF3108256
:1048700072B6886A0A4B40B98B62CB6202B962B6E3
:104880002046BDE87040FFF7A9BFC86A0360F4E79F
:1048900008396868FFF7F2FC266070BDDC1600205E
:1048A000E41600202DE9F0470468914606460D46BF
:1048B0009A469DF820209DF82C8024B940F2393189
:1048C0003320FBF79BFF664F3B78B3B9B8F1020F7B
:1048D0000DD009D9B8F1030F0CD03368002B00F0CC
:1048E0008A8040F25631EBE7FFF756FFF5E7FFF716
:1048F00075FFF2E7FFF7A2FFEFE7636A0BB940210C
:10490000DEE783F81180CB687BB1097C238E0B44F2
:1049100040F272618B4207DDFFF790FF3368002B96
:1049200069D040F27331CBE723860123A3729DF94E
:1049300028302376B8F1000F60D122756B691BB166
:104940005B78C3F30313A375EB6913B15B88A4F819
:1049500019302A78511E4B424B41E17A63F3000132
:10496000C1F34003022A08BF43F0010363F341018E
:10497000C1F34003002A14BF002303F0010363F3D3
:10498000C301AB68E1721BB1CBB243F00403E37225
:104990002B6A13B193F90030E3756B6843B104F1EE
:1049A0000D0304F10E029DF8241028460EF0F1FDCF
:1049B000AB688BB1A9F1020104F11C02012995BF7A
:1049C000DAF800301968E361E16194BFBAF80430A5
:1049D0009B88938084F81B90A969B8F1000F0FD1D0
:1049E00079B38B784A7803F01F0352EA032228D167
:1049F0003046FFF7D1FE0020BDE8F08762759DE7E5
:104A00000022636A1A705A709A70DA70A26AEAB960
:104A1000A362E36289B14A78897801F01F0152EA02
:104A200001220AD1A16A3A727A72BA72FA720D4AF6
:104A300079B9A2620023E26233600B49204611F08B
:104A4000FFFA636A3BB94FF4D77139E7E26A136042
:104A5000DFE71A60EEE7002301206362CCE700BFC6
:104A6000DC160020E4160020AD43000010B504461B
:104A70000246064900F58C7013F0BDFA224604F593
:104A8000A4700249BDE8104013F0B5BABF3C010064
:104A900010B590F854308A1E012BD2B205D1022AEB
:104AA0002CD8184B33F8120010BD03291DD0022951
:104AB0001FD14FF4E1700024124B03EB4403DB8859
:104AC00003390344012903F196038CBF00202820F9
:104AD000022A4FEA400094BF0B4940F648021844AE
:104AE00098BF31F812201044DEE740F264600124E0
:104AF000E2E740F2E6204FF4B073E1E740F6480009
:104B0000D2E700BFDA710400DA710400014B1870BB
:104B1000704700BF710000207FB590F8143103F09A
:104B2000FF0223B140F2A5212120FBF767FE0C789C
:104B3000039214F0010318BF8D68CDE9012218BF5C
:104B40000195A60707D504ADCE6805EB83050133B3
:104B5000DBB245F80C6C65072BD504AD0E6905EB8F
:104B600083050133DBB245F80C6C013B134D80F833
:104B700045314B68C0F8C830C0F8F83040F27123B6
:104B8000A0F8FC30002315F8011B0C420BD004A93F
:104B900000EB820601EB8201013251F80C1CD2B20B
:104BA0002B39C6F8CC100133DBB2032BEBD104B0A8
:104BB00070BD002BD9D140F2BE21B5E7E6710400EB
:104BC00090F87B315F2B4FEA53112DE9F04F0446EB
:104BD00089B000F2A9808F4A0A4492F80F80B8F198
:104BE000040F04D100224FF0030880F8702194F9DB
:104BF000792103F01F0394F87A91002A49EA0329E6
:104C000094F87931B4BF4FF496721E22DB0902FB8F
:104C100009F90CBF4FF01E0B4FF4967B09F098FF7B
:104C2000A9EB000609F0D6FF94F87931074606EBA8
:104C30000B0A13F0400F4F440CBF4FF4FA753225A6
:104C400010F0BCF9744B0544B6F5837F0AFB05F5FB
:104C500005F5742505F23F25B5FBF3F56FD394F800
:104C6000153103F0FF02002B61D1404601920AF09A
:104C700009FC6A4B4FF47A7A53F8289009F52243DD
:104C8000B133B3FBFAF6BA365E4406EB450606448A
:104C900040460AF0F7FB009040460AF0FBFB414615
:104CA00083462046FFF7F4FE00F18C08009BA9EB39
:104CB0000B09B044019AA8EB030804238DF80820DF
:104CC0008DF81130D4E92C32B9FBFAF9933BA8EBFB
:104CD000090842F1FF32DB19CDF80C8042F10002E5
:104CE0005B1B62F10002CDE906324D4B1878FE28BD
:104CF00003D094F854305A0701D413F003F98DF817
:104D0000100002A904F58C70C4F8D880C4F8406182
:104D1000DDE90623C4E92E230CF076FB38B940F216
:104D2000EE612120FBF76AFD4FF000085FE70AF013
:104D30002DF90CF055FB012009B0BDE8F08F40467D
:104D40004FF47A7A0AF09EFB344B53F8289009F21C
:104D5000E736B6FBFAF620365E443E442E4406445F
:104D600040460AF08FFB009040460AF093FB8346D2
:104D700041462046FFF78CFEA9EB0B0900F18C039E
:104D8000009AD4F8D8803344B9FBFAF99B1AA3EB04
:104D9000090AD0452BD2224B93F80090B9F1FE0FAF
:104DA00003D094F854305B0702D413F0ABF881467B
:104DB000484613F04BF8AAEB08034946192B38BFB5
:104DC0001923834228BF03461846984613F068F813
:104DD0000028B1D012F0D9FFD4F8D83008EB030086
:104DE000C4F8D8008238C4F8E00012F0CCFF94F880
:104DF0004431103F02A802948DF8183002237F1B23
:104E000003968DF81030002305978DF81930FFF7C1
:104E1000ADF990E7DA71040040420F00B874040065
:104E20007100002001292DE9F347064605D9022922
:104E300000F0A08040F6420150E001F00104D0E90A
:104E40002CA709F0A3FE96F87881814620464146BA
:104E500010F0DEFC054640460AF01CFB0246002C22
:104E60003FD0A8F10203DBB2022B3AD8574901EB3D
:104E700043035B8A15EB09052CBF0121002115EBCB
:104E80000A0547EB0107524951F8280000F2E730C4
:104E900010444FF47A72B0FBF2F02D1A67F100075C
:104EA000ED1847F1000711F06DFF4630D6F810817C
:104EB0002C1AD8F81C9067F1000504F0CFF906F120
:104EC000E803834210D04A46CDE90045D8E9720193
:104ED00011F066FF81451DD240F261312120FBF7C0
:104EE0008DFC4FF4FC73C5E798F87D0090B1D6E9CE
:104EF0003A7A04F00BFA30B9B8F9EC31A8F8EC01C1
:104F0000DF194AEBE37A4A4638465146CDE9004577
:104F100011F046FF2F4B1A68D6F81031824293F8F1
:104F20007E100BD9DE693218DE6279B941F66A016A
:104F30008842198616D340F2D271CFE749B1642274
:104F4000B0FBF2F151430246401AD9624FF4FA71B4
:104F5000EEE740F2E242B0FBF2F151430246D96281
:104F6000401AE3E7121945F10005C3E9722502B0C2
:104F7000BDE8F087D0F8103113B940F2DD71ADE72C
:104F8000002583F88C5090F8781183F8741083F81A
:104F90007510FF2483F876400339D0F810010129F9
:104FA00000F13C008CBF0021012111F005F9D6F879
:104FB000100112F0BBFCC6F8105186F8164109F03A
:104FC000E5FF02B0BDE8F0470CF00ABADA71040060
:104FD000CC740400F016002008B50B4B30B101284A
:104FE0000DD040F655012120FBF708FC18601A6827
:104FF00041F669039A4206D940F65E01F3E740F6AE
:10500000C4121A60F3E708BDF01600202DE9F04F36
:1050100004468FB01E468B460392BDF8608012F0A6
:10502000B0FE8146204604910EF0C7FCD4F8CCA017
:105030000546002E00F02682002800F0448220461B
:105040000EF031FE039B80F00106F6B2002B00F05B
:10505000188119F5FA630593049B43F10003069345
:1050600004F048F904F000F9074604F1E800394675
:10507000079004F0CBF8D4F8101111B107980EF096
:10508000E1FD1FB1B7F92420A4F80C21B5B1D4F883
:10509000F050B7B1B868059BD7E90021009380189C
:1050A000069B2A4641F10001019311F079FE8542E9
:1050B00008D240F24D312120FBF7A0FBD4F8C850B4
:1050C000E7E73846079004F01BF9059B0798D4F8EA
:1050D000C8C0C518069B43F10007B8F1000F00F0E7
:1050E000CB801FFA88F842F2107329463A46E8FB53
:1050F00003120CF2CF730344B3FBFCF30CFB03F37A
:10510000EB1A67F10000C4E93A300123C4E92A121E
:105110004FF0000804EB08022046069392F87C1139
:105120000EF00EFC0590069BD4E92A21521B61EB80
:105130000701012A71F100004FF00000C0F29281D6
:105140009245884100DB924604EB8808D8F8CC20D1
:10515000524594BFC4F8DC20C4F8DCA026BB1BB3C6
:105160005900B4F90C0189B211F0B8F8B4F80C2167
:10517000D4F810314FEAE07C121A12B2A4F80C21D4
:1051800043B1A3F8EC21D3E9722112184CEB0101D1
:10519000C3E97221D4E93A322D184CEB07071B18EA
:1051A0004CEB0202C4E93A32039B2BB1D4E93A2317
:1051B000C4E92C57C4E93023059B2A462046C4F88D
:1051C000D8300423C4E92E578BF809303B460EF043
:1051D0000AFC059B8BF80800CBF80430002E00F089
:1051E0004C81012304998BF80030D4E92A32B3EBC7
:1051F000090362EB0102012B72F100014FF0000183
:10520000C0F23281B34F9F42914100DB1F46D4F878
:105210001031D4F8C880002B40F02B81072620469F
:10522000A8FB06560EF0C9FB002800F01F81D4E948
:105230002C32ED1846EB0206A945049BB3410FD270
:10524000B5EB0905049B66EB03066FF00103AB4267
:105250004FF00003B34102D3AF4228BF2F46B846F8
:10526000CBF81080D4F8DC00059B984234BF0020B6
:1052700001200FB0BDE8F08F4FF0FF316FF000421A
:1052800037E7002E39D06FF00043D4E92A129A4252
:1052900008BFB1F1FF3F2BD094F84431204623449E
:1052A00093F87C110EF04CFB039B19F1AB02054601
:1052B0008DF82030049B099008A843F10003CDE944
:1052C0000C2340F20243ADF8283012F09AFE10B9D8
:1052D00040F29641EFE6D4E92A320C995B1A0D9917
:1052E00062EB01025B1B62F10003002BC0F2B38092
:1052F0004D46049F012600230AE7D4E93A37D4F843
:10530000C8500026A9EB03025919B2FBF5F205FBC0
:1053100002F247F100075218A2EB090147F100071A
:10532000AA290DD8D4F8B810C91AB1FBF5F105FBBC
:105330000133D31AB3FBF5F3AD1847F10007E7E6E5
:1053400094F87C1120460EF0FBFA0423D4F8B82020
:105350008DF82930D4F8C850099020468DF8206087
:10536000D4E93A13521AB2FBF5F26A43521843F1E8
:105370000003CDE90C230EF036FB29468DF82800FA
:1053800008A810F0E0F90346DDE90C57C0E651F833
:10539000042F013302F12B0CBC459FBF821A08F188
:1053A0000108BF185FFA88F8DAB29645EFD804EB27
:1053B0000803204693F87C110EF0C2FA384404EB3F
:1053C0008803D3F8CC30834209D3A3EB070ABAF1A0
:1053D000000F24DA40F24E416DE62F466AE094F861
:1053E0004511D4F8C820414511D908F1010895426A
:1053F0005FFA88F808D204EB8803D3F8CC3003F1C5
:105400002B029A461546E2E74FF4856153E6954232
:10541000F7D352009542F4D340F245414BE6AD1923
:10542000059B20464FF0000643F10007D4E92C23EA
:105430000EF05DFAD4F8C8305843D4E93A321B185C
:10544000204642F10002C4E93A323B462A460EF0B9
:105450004EFA03465EE6039B4D46049F01269A469C
:10546000984657E682466FE60F46D0E6D4E93032DA
:10547000DFE64FF0FF352E46DEE68BF80060CBE925
:105480000457EFE6039B002B7FF4E3ADD4F8C8701C
:1054900009F1AB05D4E93A23A9EB0206B6FBF7F60E
:1054A0007E43B618A5EB060543F10003AF42059312
:1054B00093D8EF1B002394F845E104F1C8016FF085
:1054C0002A00984670E7039B002B3FF416AF2E4648
:1054D000BFE500BF0040420F0138C0B2032808B545
:1054E00004D94FF449710620FBF788F9014B185C89
:1054F00008BD00BFF67104000138C0B2032808B52A
:1055000004D94FF449710620FBF778F9014B185C78
:1055100008BD00BF137204000138C0B2032808B5EB
:1055200004D94FF449710620FBF768F9014B185C68
:1055300008BD00BF747204000138C0B2032808B56A
:1055400004D94FF449710620FBF758F9014B185C58
:1055500008BD00BF6F730400014B1868704700BF9F
:10556000A817002008B5034610465A1E032A10D873
:105570004A1E032A0DD8084A012951700CBF002188
:105580000A211071937091721946FCF713F80020EC
:1055900008BD6FF01500FBE780080020074B5A8A12
:1055A00038B142F01002987A5A82DA8A9A83987750
:1055B000704722F0100298835A82F8E78008002092
:1055C00010B4094C637A58B143F0040300296372A4
:1055D00010460CBF00230723637110BCFFF7DEBF2A
:1055E00003F0FB03F2E700BF8008002040EA41001F
:1055F000014BD870704700BF8008002010B50446EA
:105600000EF0DDFC08B9002010BDE0430EF0D7FC21
:105610000028F8D0E31683EAA4635A1E1A42F2D097
:10562000E3B25A1E13405A1E1342ECD0A0B210F03F
:10563000A9FE0B28E7D8204610F0A0FE1828E2D8D3
:10564000A3B2B3EB144F04D184EA142313F0FF1F69
:10565000D9D0044B6340581E1840003818BF0120B1
:10566000D2E700BFD6BE898EF0B5070C164BA7F562
:10567000AA4203EA9023543A012A20D927F4004091
:1056800042F6AA22801A18BF0120002216211F24E8
:10569000164687EA060562EA0505013511D0DD03E5
:1056A00001394FEA5303ADB245EA56064FEAC43515
:1056B0004FEA5404ADB245EA5202EAD1F0BD0020EF
:1056C000E3E70020FAE700BFE0FF3F00F8B50D4632
:1056D000074640F67A4CBDF81860A81FBDF81C10AC
:1056E00080B2604515D8941FA4B264458CBF0020D9
:1056F000012087B9194C247984B188B96FF45067B7
:10570000EC19062C04D86FF450641419062C07D930
:10571000F8BD0020EDE797F87D40EDE70028F7D0D1
:10572000954218D803FB0111B1F5FA7F13DCA6F1FD
:105730000A0340F676409BB283420CD810460EF026
:1057400029FD42F2107341435E43B6EB410F8CBF1B
:1057500001200020DCE70020DAE700BFB0170020BE
:10576000304BF0B5B0F868700C4611461A88B0F8A6
:10577000666085B097425D8828BF1746964228BF6D
:1057800016461B2E2ED0B5F5A47F2DD040F648032B
:1057900001AA9D4228BF1D460EF01DFDBDF80A302E
:1057A000BB4228BF3B46E380BDF80C30AB4228BF6C
:1057B0002B462381BDF80630B34228BF33466380B1
:1057C000BDF80830AB4228BF2B46A380FF232370CF
:1057D000E3881B3B9BB2E02B08D940F2E6613920FD
:1057E000FBF70CF81B2FCED105B0F0BD63881B3B37
:1057F0009BB2E02B02D94FF4DD61F0E7238940F63C
:105800004812A3F5A4739BB2934202D940F2EA6115
:10581000E5E7A388A3F5A4739BB29342E4D940F2D1
:10582000EC61DCE7B0170020F7B5002304460E4614
:105830001746CDE900336846FBF7ECFC08B10020C1
:1058400016E0009DA542F6D03046EB1C0EF09CFC05
:105850003946AA780FF078FE0028ECD005F10A034B
:105860006A7A04F10A01607A0FF06EFE0028E2D035
:1058700003B0F0BD054A516A02F11D03127F11F811
:10588000030BC0F380100FF05FBE00BF301D00207F
:1058900001281ED8022B0DD1A2F57A700F4B984229
:1058A00019D8A1F57A70984215D88A428CBF122077
:1058B000002070470A4882420DD8012B0CBF40F2ED
:1058C000527340F6C3139A4205D9A1F6C410054B92
:1058D000E9E7122070473020704700BFA7F9700237
:1058E0008FFD7002CBF3700210B504460A480DF02C
:1058F00004FE0A492046FFF70FF920460DF024FD6B
:1059000038B12046FEF752FC20460DF0F3FD002092
:1059100010BD1220FCE700BFCC170020D4170020D8
:105920002DE9F04F9A4685B0754B04460DF10809F4
:10593000744F186888461B791646029089F804301F
:1059400097F8563013B1484602F0A0F96E4D002189
:1059500020460FF092FEAB68A4F80080E36396F84F
:105960004A2006EB4202B2F82AB058460EF012FC6A
:1059700001466FF4506000238344BBF1060F6BD9DE
:10598000908C4FF0961284F87E302387626340F249
:10599000E2420EF0FFFB03F0BFFC40F2E24301469F
:1059A000A4F8DC312046E161C4F8D81111F0A9FF58
:1059B000834601F081FB8306297C53BF1B236B8840
:1059C000AA881A46A4F86630504BA4F868201B68D1
:1059D00084F84410A4F846B01BB194F97C104046FA
:1059E00098473B79003B18BF012384F87D30484B32
:1059F0001B6813B147492088984701236386464BAB
:105A00001B6813B1454920889847454B1B6813B163
:105A1000444920889847444B1B680BB1208898471D
:105A2000424B1B680BB120889847AB8804F11400E7
:105A30006A8869780333033201919BB2297892B264
:105A4000009104F11801FBF71DFC636973B941F281
:105A5000BE113920FAF7D2FE4FF04D1223870123F1
:105A6000626384F87E304FF47A7399E7A36913B9BF
:105A700041F2BF11EDE70EF067FB2062BAF1000FB3
:105A800004D002F035FC20F07F40A06296F84A3046
:105A90002046E96806EB4306338EA384F38EE38445
:105AA00011F02CFF494604F196000FF049FF97F8DA
:105AB000563013B9FF2384F82D32BB6D23B1012278
:105AC00004F5917120469847194920460FF08BFE46
:105AD00002F00EFC0C230121B0FBF3F202FB1300D9
:105AE000C0B2431DDBB2082B9CBF0D30C3B22046B1
:105AF00084F8A2300FF0C1FD05B0BDE8F08F00BF03
:105B00000F170500B01700206C1C002018020020A1
:105B100010020020B81700202C020020EA170020F5
:105B20001C020020F4170020200200202402002084
:105B30008A1C002010B503210020FBF731FB04462E
:105B400070B90321FBF7F0FA044620B940F2633143
:105B50003920FAF753FE034B93F95C1011F0E1FB87
:105B6000204610BDB01700202DE9F04F87B0074642
:105B70008846008804A90FF07DFE064600287CD1E7
:105B8000059D95F87531002B6DD0B8F1020918BF4D
:105B90004FF0010995F88E30252B95F8E13043EA56
:105BA000D3030CBF89F0010A4FF0000AD90702D4D1
:105BB000BAF1000F63D0B8789DF8104008B901F031
:105BC00085FA8DF80B00F87808B901F07FFA2E4BB2
:105BD0008DF80C00D3F800B0BBF1000F0BD00AF029
:105BE000010320460DF10B022946009303ABD84771
:105BF000044600283AD19DF80B20B2B39DF80C3032
:105C00009BB3164695F87D2032B1B20703F002032C
:105C100037D5B3B302231E46FF2285F82D21B9F1F3
:105C2000000F28D195F82C2102F0FF041ABB85F84B
:105C30002C8103A985F82E61284685F82F31BB8871
:105C4000A5F83031BA78ADF80E308DF80C20FA781E
:105C50008DF80D200FF0C7FD002385F82D3120466B
:105C600007B0BDE8F08F814694E70924BAF1000F30
:105C7000F5D00023C6E73A24EEE70446EFE71A24FE
:105C8000EDE70924EBE700BF28020020034B93F85F
:105C90002200C04300F00100704700BF6C1C0020D0
:105CA000044B93F82200C0F3400080F0010000F0A4
