:1000000078E10020B93D01003BCE0200A53D010092
:10001000A53D0100A53D0100A53D0100A53D010054
:10002000000000000000000000000000293F010067
:10003000A53D010000000000C13E0100A53D0100FA
:10004000B1400100B1400100B1400100B1400100E8
:10005000B1400100B1400100B1400100B1400100D8
:10006000B1400100B1400100B1400100B1400100C8
:10007000B1400100B1400100B1400100B1400100B8
:10025000B1400100D7FF0200B1400100B1400100F0
:10026000B1400100B1400100C1FF0200B1400100F6
:10027000B1400100B1400100B1400100B1400100B6
:10028000B1400100B1400100B1400100B1400100A6
:10029000B1400100B1400100B1400100B140010096
:1002A000B1400100B1400100B1400100B140010086
:1002B000B1400100B1400100B1400100B140010076
:1002C000B1400100B1400100B1400100B140010066
:1002D000B1400100B1400100B1400100B140010056
:1002E000B1400100B1400100B1400100B140010046
:1002F000B1400100B1400100B1400100B140010036
:10030000B1400100B1400100B1400100B140010025
:10031000B1400100B1400100B1400100B140010015
:10032000B1400100B1400100B1400100B140010005
:10033000B1400100B1400100B1400100B1400100F5
:10034000B1400100B1400100B1400100B1400100E5
:10035000B1400100B1400100B1400100B1400100D5
:10036000B1400100B1400100B1400100B1400100C5
:10037000B1400100B1400100B1400100B1400100B5
:10038000B1400100B1400100B1400100B1400100A5
:10039000B1400100B1400100B1400100B140010095
:1003A000B1400100B1400100B1400100B140010085
:1003B000B1400100B1400100B1400100B140010075
:1003C000B1400100B1400100B1400100B140010065
:1003D000B1400100ABFF0200B1400100B14001009B
:1003E000B1400100B1400100B1400100B140010045
:1003F000B1400100B1400100B1400100B140010035
:10040000B1400100B1400100B1400100B140010024
:10041000B1400100B1400100B1400100B140010014
:10042000B1400100B1400100B1400100B140010004
:10043000B1400100B1400100B1400100B1400100F4
:10044000B1400100B1400100B1400100B1400100E4
:10045000B1400100B1400100B1400100B1400100D4
:10046000B1400100B1400100B1400100B1400100C4
:0C047000B1400100B1400100B1400100AA
:10048000064A074B02604FF422725B788280082292
:10049000C371002382710372704700BF07C400005C
:1004A000C00E0020064A074B02604FF49C725B7A34
:1004B00082800822C371FF2382710372704700BFDC
:1004C0002BBF0000C00E0020F8B5C41D0028054653
:1004D00024F007040CBF0020204600F0C7FA071ED6
:1004E00002DA6FF00B00F8BD254EB1887088033139
:1004F000F3790330B27989B280B209F0DBFB0028CE
:10050000EFDB3C4473783178002D04F10304194487
:1005100024F0030400FB01F10CBF0020204600F092
:1005200029FC23180DB9002BDBDB717A184679B151
:100530000333002D728923F003040CBF00202046F2
:1005400000F08AFC0028CCDB20440DB90028C8DB71
:10055000317A91B1737A83B1C41D002D24F0070460
:100560000CBF0020204603F01BF90028B9DB0DB1B9
:100570000020B8E72018B6D5B3E7002DF8D1B2E7D0
:10058000C00E00201FB572B6194BDC68ECB9BFF382
:100590004F8F1849184BCA6802F4E0621343CB60CE
:1005A000BFF34F8F00BFFDE7B2FBF6F22B465D1C99
:1005B000002AF9D1DBB203F110056D4405F80C2CCB
:1005C0000A2233B901A8A047E1E7024600230A2620
:1005D000EDE7013BDBB203F110050DEB0506B0FBC7
:1005E000F2F502FB1500303006F80C0C2846E8E75F
:1005F000C00E002000ED00E00400FA050A4B07B52C
:10060000DA886846ADF800209A885B88ADF8042047
:10061000ADF8023001F064FD18B1FC219C20FFF719
:10062000B1FF03B05DF804FBC00E002010B5044616
:1006300028B308F035FD10B94FF0FF3010BD07F0BA
:1006400059F8B0F5FA7FF7D80E4B00221A744FF420
:100650008072DC601A801B225A809A8040F203224A
:10066000DA804FF484721A811F225A81EFF31084CA
:1006700072B600F04DFC04B962B60020DEE76FF000
:100680001500DBE7C00E002010B5002840D1234C38
:10069000237C032B39D059B1002A3CD002390529DB
:1006A00036D8DFE801F0031227352A2D137863705E
:1006B0000020FFF709FF0028B7BF012302236FF0D6
:1006C0000B002374A8BF237410BD13791BB3537997
:1006D0000BB31188FB291ED853881B3B9BB2E02B20
:1006E00019D81A2917D913689288C4F802300C4B0C
:1006F0009A80DDE713786372DAE713886381D7E7BE
:100700001388FF2B07D82372D2E74FF0FF30DBE7C7
:100710006FF02C00D8E76FF01500D5E7C00E002071
:10072000C20E0020F8B50D46064620B319B311F0ED
:10073000070420D1114F3B7C012B02D16FF00B003D
:10074000F8BD032B02D14FF0FF30F9E700F060F85D
:100750000028F8D02846FFF7B7FE0028EEDB0BF0A4
:10076000AFFE3046214601F03DFDFFF747FF032372
:1007700020463B74E4E76FF01500E1E7C00E00206F
:1007800010B5064C237C032B03D101F041FD02F090
:1007900075FA09F091FB0020207410BDC00E0020F6
:1007A00050B1074B03F1140253F8041B934240F875
:1007B000041BF9D1002070476FF01500704700BF8F
:1007C00082E0030008B501F0D9FC03490120BDE82F
:1007D000084000F043B900BFA504000008B501F0CF
:1007E000E1FC03490020BDE8084000F037B900BF34
:1007F0008104000002680020014B1A60704700BFAE
:10080000D40E0020014B1B68184700BFD40E0020F7
:10081000024B1868003818BF01207047D40E002022
:100820002DE9F7430446224E00F104082048C6F89B
:10083000008002F03BFA0228054607D11C492046F9
:1008400008F0A7FE284603B0BDE8F0830428F9D1DC
:100850003378072B18D13E2000F040F878B9F378B0
:1008600001A93279684643EA0223ADF8003009F065
:10087000EEFE0028DAD056210820FFF783FE05207F
:1008800000F070F80028EAD02046314608F0B3FEA8
:10089000277894F80290384600F020F80028C5D058
:1008A0003E2FCFD1484600F05DF80028CAD1BDE701
:1008B000D80E0020074B4FF0FF3141F6FF72C3E91D
:1008C000001205490022C1E900221F21C3E90212DA
:1008D000704700BF60000020FC0E00203F280CD8AD
:1008E00001380B4BC0F3421200F01F0053F82230C6
:1008F00023FA00F000F001007047FF2806D04038CE
:10090000044BC0F3421200F01F00EFE701207047D4
:1009100060000020FC0E0020074B0146006849687B
:100920001A4603C240F48C2200201A6041F0107273
:1009300042F4FF625A607047600000200246034B99
:100940000068516803C30020704700BFFC0E002000
:100950000246034B0068516803C30020704700BF84
:1009600068000020431E3828DBB21FBF064A590921
:1009700003F01F0302EB81021DBF9068D84000F016
:1009800001000020704700BF600000200A8870B599
:1009900095B2C67CC2F30E020488023602F1180337
:1009A0003444C35AA4B233442344013BB3FBF4F3AD
:1009B00003FB0422438892B29342044B8BBF2B402B
:1009C000AB4313439BB20B8070BD00BF0080FFFFA1
:1009D0004A1E062A08B50346084604D84FF4D171CA
:1009E0001520FFF7CFFD094A914202D940F2A31129
:1009F000F6E711B903B1196008BD2BB11B680022DD
:100A0000C3E901211A1D1A600430F5E7FAFFFF7FE0
:100A100010B5114B00EB41041A786389B3FBF2F374
:100A200003FB0223013A1A44B2F5706F0279807811
:100A300028BF00231A440B18B2FBF0F100FB112170
:100A40005B1AB3FBF0F100FB113313446FEA43432D
:100A50006FEA5343638110BD040F0020024B03EB88
:100A600080035960704700BF040F00202DE9F04F4C
:100A700010F0070A85B0054604D040F26111172036
:100A8000FFF780FD524F044607F10C06B146B04611
:100A900057F8043B8DF80BA03BB101A898479DF88F
:100AA0000A30082B01D9E821E9E79DF80B1041BB7A
:100AB00005B131604F4506F10406E9D1002D6ED035
:100AC0000022DFF810910227964689F8002058F896
:100AD00027A0013FBAF1000F54D09AF804609AF8A9
:100AE00002C0FF2E5FD039460023481C37D19C44FA
:100AF000BCF1FF0F3ED90AB189F800E040F227119E
:100B0000BDE79DF80AC04B1D60465A0004EB430345
:100B1000022838BF0220441E40422344BDF808404A
:100B20006444CCF1000C0340013C04EA0C04B4F52D
:100B3000803F01D3F821A2E775B19A1A01203260F3
:100B400091701480D0709DF80C00107101984FEADC
:100B5000104C1081A2F806C004FB0134AAE758F833
:100B6000210028B190F804B0B34504BF80781B1869
:100B70000139BAE7DBB2E6458AF804303CBF5FFAD8
:100B80008CFE01227B1CA2D10AB189F800E002266A
:100B900040F6FF6A58F82670B7B9013EFAD2601BDA
:100BA00005B0BDE8F08F0023E5E707EB410309F14D
:100BB00001093846A3F80AA0FFF72AFF5FFA89F176
:100BC000BB788B42F1D8E8E74FF00009F6E700BFA9
:100BD000080F0020040F002038B54FF6FF730246BF
:100BE0000380184B03EB81031869A8B1847803795B
:100BF000B3FBF4F104FB1133DBB2194600EB410502
:100C0000B5F90A50002D0EDB0131B1FBF4F504FB00
:100C10001511C9B28B42F1D1002038BD6381BDE806
:100C2000384009F023B800EB41046389C3F30E0395
:100C30001380C278002AF1D14FF4D5711720FFF745
:100C4000A1FC00BF040F00201C4B03EB810370B517
:100C50001C69054644B3030404D54FF4DC71172026
:100C6000FFF790FC0146204608F0E3FFFF2801460D
:100C700004D02046BDE8704008F0F8BFA078B5FB6E
:100C8000F0F300FB1353DBB219460A1D04EB4206D6
:100C9000B6F90260002E09DB0131B1FBF0F200FB76
:100CA0001211C9B28B42F0D1002070BD8B4201D02D
:100CB0000023E37004EB42025580DAE7040F0020C2
:100CC000094B03EB8103014610B51C69204608F06F
:100CD000B0FFFF28014604D02046BDE8104008F0D0
:100CE000C5BF002010BD00BF040F0020F8B5104B99
:100CF000074603EB810301461C69204608F099FF73
:100D0000FF28054611D0E288238953EA024606D01F
:100D10000146204608F0AAFF01463846B047204663
:100D20002946FFF775FE0020F8BD0520FCE700BF4F
:100D3000040F002038B50E4B0446827903EB820382
:100D4000186908B9052038BD8278E1799142F9D255
:100D50004B1CE37100EB41035D89B3F90A30002BB2
:100D6000F3DBA58008F082FF20600020EBE700BFE6
:100D7000040F002070B5044610F003000E4603D0A7
:100D80004E211820FFF7FEFBFFF722FE054624B197
:100D9000034831460460FFF71BFE284670BD00BFC4
:100DA000200F00202DE9F14FDFF870B01E460746F6
:100DB0000D46DBF8003090469DF828A09DF82C9059
:100DC0001BB960211820FFF7DDFB52460921404680
:100DD00008F0B7FD4A4684B20921304608F0B1FD5B
:100DE00081B2DBF80000214408F0F7FE386018B942
:100DF000286001B0BDE8F08F044453464146092203
:100E00002C60386808F060FD4B460922314628689E
:100E100001B0BDE8F04F08F057BD00BF200F002023
:100E200070B50E46044608F09FFD0546304608F0B2
:100E30009BFD044B2A1821461868BDE8704008F055
:100E4000F1BE00BF200F0020024B186808B108F067
:100E5000B8BE7047200F00201F2AF8B5044624D8DA
:100E60009200134D033250B1830703D0682109204B
:100E7000FFF788FB22F00303297068602B8122F0C2
:100E8000030228230127120403FB01F06B680025ED
:100E9000120CEEB2B14200D8F8BD14B126181F7082
:100EA0005E60104401352833F3E74FF0FF30F3E77D
:100EB000240F0020154A002170B553681578C8B278
:100EC000854203D8BA210920FFF75CFB1C4618466F
:100ED000013114F8286B0EB92346F0E70021997010
:100EE00001241289996103F126055C709208D96189
:100EF00003F11E04596824F8022FAC4243F8041F82
:100F00001144F8D100234361037070BD240F002009
:100F1000114B01224FF0FF3000215A60C3F8080343
:100F2000C3F80015C3F804255A6040F6FE72C3F8F2
:100F300008034020C3F8001503F570330749C3F8D0
:100F40000825C1F88800BFF34F8FBFF36F8FC1F83A
:100F50008801C3F8082570470060045000E100E0F4
:100F60000A460648192302F8033BC368C1F8033058
:100F70000369536043699360704700BF300F0020DE
:100F8000024B5A8C02435A845B6A1847300F002088
:100F9000014B00215B6A1847300F002010B5154C3B
:100FA00005F0C8F905F040FE208DFFF7F1FF237E24
:100FB00063B12246104904F1190052F80C3BE3607A
:100FC00063685360A36893600AF011F90B4B228D9C
:100FD00093E8030002F014FC236B188802F096FBE0
:100FE000A36B94F8341094F835009847002384F8E4
:100FF0003C3010BD300F0020610F00005C0F00205E
:10100000034B93F83C300BB1FFF7C8BF704700BFEC
:10101000300F002070B51B4C0646236D256B2364F2
:101020004FF4817394F85400A4F8443095F88B3051
:1010300095F8691000EB83002EB9FF2803D195F8CD
:1010400068308B4201D005F049F895F88B309BB1A0
:10105000A06D05F029FAA16D206C05F06BFD16B9A5
:10106000304605F06FFA95F86810002005F0B2FAE6
:10107000022384F83C3070BD206C05F015FA05F0B1
:10108000D3FDECE7300F002008B5094B93F83C2066
:10109000022A04D040F2BF212720FFF773FADA7A40
:1010A00042F00102DA72BDE80840FFF777BF00BFE7
:1010B000300F0020F7B5184C0646E56D0DB1A36C56
:1010C00023B940F29A712720FFF75CFAB4F84C304C
:1010D00001F003012F466B702B7823F003030B43C1
:1010E00007F8033B3846B4F84C20A16C08F030F9FF
:1010F0000DF1020201A9206E2564A76408F057FDD6
:10110000019808F042FD0122B4F84C103060206EC6
:1011100008F0EAFC03B0F0BD300F00202DE9F043E9
:10112000364C87B006460F4694F83C30012B5FFAE8
:1011300083F804D040F2E2712720FFF723FA256BF1
:1011400095F87C303BB10021042085F87C10FFF736
:1011500017FF85F87D8095F88030042B0AD1284947
:101160000220FFF70DFFE36E1B78991E4B424B41A7
:1011700084F8743095F88B30CBB1236B93F8690009
:1011800008F09CFE0123002205F1F001D5E93A891F
:10119000CDE904230390022094F85420029205F52F
:1011A0008072CDE9003242464B4605F0F9FB26B18C
:1011B00007B0BDE8F043FFF7F1BE002FF8D0A36FF2
:1011C000304698470028F3D094F83430002BEFD104
:1011D000638C9A0709D594F87430002BE8D000206E
:1011E00007B0BDE8F043FFF715BF002BE0D194F83E
:1011F0007C30002BF3D194F87D30EEE7300F0020E7
:101200009C0F00202DE9F04F00238FB0B14C0690C9
:10121000256B0891CDE90B3394F83C30022B5FFA33
:1012200083FB04D040F685012720FFF7ABF9236C40
:101230005A7893F800A0A4F84C2003220AF0030681
:101240001344A4F84420069AA36495F88B30002A2E
:1012500000F02F81CAF3C007C3B105F003FD831E60
:10126000DBB2012B04D8FFF799FE0FB0BDE8F08F79
:1012700060B9B4F84C304BB195F8823003F00103FB
:10128000BB4203D1012384F83530ECE7B4F84C10AD
:1012900019B1206E08F008FC014695F88120238DD5
:1012A0000132E16543F40073D2B2238582EA9A08E1
:1012B00018F0010873D0069B95F88220079302F07E
:1012C00001039F4200F0AB80002795F88A30C3B13C
:1012D00095F8680008F0F2FDFB2200234FF0010CA6
:1012E00005F1F001D5E93889029205F58072039085
:1012F0000420CDE90032CDE9043C42464B4605F0DE
:101300004FFBE36D002B40F0E380B4F84C30B3FAB0
:1013100083F35B0903EA1A1384F87D30089B002BE2
:1013200040F0DE80628C94F88A30110704D594F87E
:101330007420002A40F0D480012B00F2D180A36FEA
:1013400001209847002800F0CB8094F83490B9F140
:10135000000F40F0C580D4F8308094F8543098F8ED
:101360008B2098F8681003EB82038DF82990ADF874
:101370002A90FF2B03D198F869308B4202D0FF20CE
:1013800004F0ACFE98F88030052B00F2E281DFE833
:1013900013F0FE00BA01BE01BE01D001D00195F8E4
:1013A00080305BB3013B85F88120DBB2042B0FD882
:1013B000494AD35C002B3FF47EAF022B0BD10BA923
:1013C000D4F8840008F019FB88B940F2AA612BE731
:1013D00040F2896128E7032B10D100F0CFFF10B94C
:1013E00040F2B46120E741460820FFF7C9FDD5E986
:1013F0003832013342F10002C5E93832002195F854
:101400007D3085F8801023B1102085F87D10FFF71E
:10141000B7FD238D43F40063238500234CE7B4F824
:101420004C30E3B1711E012919D8218D41F480514E
:10143000218594F88810994206D294F8343043F00C
:10144000100384F834303FE7E16D00293FF43CAFEE
:1014500094F8891019B12020FFF79AFD34E7013282
:10146000032E85F8822019D0721E012A0BD8002B7A
:101470003FF42AAF069FD5E93A32013342F1000228
:10148000C5E93A3221E7002B3FF41EAFD5E93A32E5
:10149000013342F10002C5E93A3215E7238D0120FC
:1014A0000E4943F4805385F87C002385FFF768FDDF
:1014B000ECE70BB105F0F0FB94F88A30002701331C
:1014C000079784F88A30238D43F480632385FCE6F4
:1014D00001231FE7300F002044530300780F002042
:1014E00005F082F8002F4DD101230893A64C238DDF
:1014F0005A0606D44020FFF74BFD238D43F04003EE
:101500002385079B6BB1B4F80720B4F8053013436B
:10151000B5F87E2013431EBFB4F809300133A4F898
:101520000930069B002B00F02881B4F80530013308
:10153000A4F80530002384F88A30944802F0D4F8E7
:101540000B9830B108F021FB00220272294601F00D
:101550009DFC0C9B33B100221A720C2229460C9878
:1015600001F062FC089B002B7FF47DAE238D1B06EF
:101570003FF57BAE8020FFF70BFD238D43F080030A
:10158000238572E631460CA8FFF794FDACE794F88A
:101590008B300DF12A010DA8A8F85830ADF82A308B
:1015A00000F0DEFE40B10D9830B1012384F88C309C
:1015B000042388F8803021E098F8C330002B40F0F5
:1015C00099800DF129020DF12A01D4F8840008F068
:1015D000F2F9002800F08E80BDF82A30002B00F0D0
:1015E00086809DF82930002B7BD1038083704FF0DB
:1015F000030B88F880B0012384F88C30BDF82A30C2
:101600006066A4F8703003B1C31C98F8802098F885
:1016100081A0022A98F882B0E36607D0043A012A32
:1016200000F29A801B780322022B11D0D4F8840098
:10163000099208F018FA099A002840F08F80032ACE
:1016400006D000F0A7FE80F00109099A5FFA89F937
:10165000616E4FEACA0A4FEA8B0B0B780AF0080A50
:101660000BF0040B03F0F30343EA0A0343EA0B0312
:1016700023F0100343EA091309F0010923F00303DF
:1016800084F87C90DFF800911A430A700222B4F8C3
:1016900070304B70A4F8682098F88A20002A60D037
:1016A000002B5ED0A06D04F0FFFE0022A16D606EE5
:1016B00005F09AF818B9616EA06D05F0D9F998F89F
:1016C0006910012004F086FF012389F88D3089F824
:1016D0003C30002F3FF40AAF31460CA8FFF7EAFC7C
:1016E00004E7037803F00303012B82D17FE74FF077
:1016F000010B7EE70023ADF82A30012388F8803003
:10170000234800237CE70023ADF82A30F8E7B8F837
:1017100058300DF129020DF12A01D4F88400ADF8FA
:101720002A3008F048F900287FF465AF40F2DE4126
:101730007AE50DF12A010DA800F012FE08B10D980E
:1017400010B940F2EB416FE5012384F88C3005239A
:101750002FE740F2F34167E5012267E74FF0010907
:1017600076E7D9F8640004F09FFE05F05DFA0021E9
:10177000D9F864000AF0CCFEA1E7B4F807300133D1
:10178000A4F80730D9E600BF300F00205C0F00201E
:10179000AE0F0020064B10B593F83C2002F0FF047A
:1017A00022B91C7602F024F8204610BD0C24FBE779
:1017B000300F0020094B0A4A10B51A60FFF7EAFF04
:1017C00020B14FF4A2712720FEF7DCFE054C00F09B
:1017D0002FFD206500F030FDA06510BDA8000020A1
:1017E000F4190000300F00202DE9F04389B0754C4A
:1017F00006AE109F86E8030094F83C1001F0FF0548
:1018000011B90AB103B127B940F2D9112720FEF767
:10181000B9FE96E8030004F12C0CA36784F8345059
:101820009DF8443084F88A5084F8355084F88D50FF
:1018300084F88C506584258584F87C5084F87D502C
:1018400084F874506566E566A4F870502564A56454
:10185000A4F84C5084F889306262A7638CE80300D6
:10186000256B04F067FC05F0DFF995F9700004F0D2
:10187000BFFC6E6AE86904F0C1FC304604F006FE65
:1018800095F89B0004F0C4FC0AF06AF895F869200A
:1018900000F16501012004F039FD4B4B186804F09C
:1018A000FBFD2B69C4F884306B692366236B93F8C6
:1018B000852093F86860A2F12701012903D993F8E4
:1018C0008610272964D193F85E322BB1012E03D004
:1018D000012B0CBF0126022605F1300731463846A0
:1018E00009F015FD314609F062FAAB8F95F86910E1
:1018F000834228BF0346384684F88B3009F0F0FC59
:1019000095F88B7095F86910B5F8446009F04FFAB6
:101910000FB9043080B2864295F88B3028BF064656
:10192000F6B284F8886084F85460B3B195F8690021
:1019300008F0C4FA0123002205F1F001D5E93A8943
:10194000CDE9042305F58072CDE90260CDE90032CE
:10195000022042464B4605F023F80120FFF75AFBD0
:10196000236BD3F8B00104F0BBFD00232360636058
:10197000A360B5F87E3063802B88238095F89B3078
:101980002371EB6E0BB101221A6009B0BDE8F08340
:10199000223A012A0DD825290DD093F8263113F0CB
:1019A000010202D19B0797D50222012E18BF1646CD
:1019B00092E7252990D193F8262193F861301340BE
:1019C000EDE700BF300F0020A8000020014B93F886
:1019D0008D007047300F0020024B93F82900C0F3B0
:1019E000C0007047300F0020014B93F88A00704709
:1019F000300F002089100000051200001D110000AA
:101A000001100000304BF0B55A8885B0B0F85C701A
:101A10000C46B0F85A6097429D8828BF17469642F8
:101A200028BF16461B2E2ED0B5F5A47F2DD040F62C
:101A3000480301A99D4228BF1D4608F07CFABDF865
:101A40000A30BB4228BF3B46E380BDF80C30AB42B6
:101A500028BF2B462381BDF80630B34228BF33464A
:101A60006380BDF80830AB4228BF2B46A380FF231C
:101A70002370E3881B3B9BB2E02B08D940F2E66160
:101A80003920FEF77FFD1B2FCED105B0F0BD638856
:101A90001B3B9BB2E02B02D94FF4DD61F0E72389B9
:101AA000A3F5A4739BB2B3F5E06F02D940F2EA61EB
:101AB000E6E7A388A3F5A4739BB2B3F5E06FE4D97E
:101AC00040F2EC61DCE700BFC00F002010B501213F
:101AD0000020FFF7F5F8044670B90121FFF7B4F8CC
:101AE000044620B940F263313920FEF74BFD034B29
:101AF00093F906100AF0EBF9204610BDC00F002044
:101B0000024B987DC04300F001007047E4130020B1
:101B1000044B987DC0F3400080F0010000F001000C
:101B2000704700BFE413002008B509F06DF800F01D
:101B3000D1FD00F0A1FB09F032FB01F043FE03F000
:101B4000C9FF0022084B1B214FF4A4701A60074BF9
:101B500098801A8059800648064B186099805A74FC
:101B60005A829A829A7508BDAC000020C00F0020EE
:101B700003021B00E4130020044B41F64C52C3E95E
:101B800002221B221A74FFF7CFBF00BFE41300200C
:101B900073B5234D0446AB680363224B83610AF09F
:101BA00027F8064600F058FB8306297C53BF1B2309
:101BB0006B88AA881A46A4F85A301B4BA4F85C20FC
:101BC0001B6884F8381066871BB194F97010208860
:101BD0009847164E2046314609F0F8F801236A88E6
:101BE00004F110006978E3850332AB88019192B269
:101BF00016F8121C033300919BB204F11401FFF795
:101C0000D1F8236923B940F2BD613920FEF7BAFC4F
:101C1000636913B940F2BE61F7E7002002B070BDFE
:101C2000E413002000093D00B0000020F61300205E
:101C3000024B1B6803B118470C207047AC00002012
:101C4000034B5A8802801B7883700020704700BFC6
:101C5000E413002037B5837805461A2B08D8042BE7
:101C600004D9144A22FA03F3DB0705D412241AE03C
:101C7000292B01D03B2BF9D12888B0F5706FF5D214
:101C8000694609F0CEF888B9019B93F8182102F053
:101C9000FF046AB9AA7883F81921FF2283F8182172
:101CA000684608F081FA204603B030BD0224FAE706
:101CB0000C24F8E7200038040188A1F11B039BB233
:101CC000E02B0CD8428844F24810A2F5A4739BB2D2
:101CD000834204D8034B002059809A807047122019
:101CE000704700BFC00F0020034B5A889B880280BA
:101CF00043800020704700BFC00F002038B5027835
:101D0000447802F0010302F0020254EA030101D117
:101D1000112038BDBAB98578002DF9D0002B18BF35
:101D2000002400E01D46204608F0D8F80028EFD037
:101D3000284608F0D3F80028EAD0054B00209C7410
:101D4000DD749882E5E7002BECD000242546EAE715
:101D5000E413002013B50088694609F07EF80446B4
:101D600020B9019890F82A311BB13A24204602B0DC
:101D700010BD90F8CE3003F0FF04002BF5D190F8A1
:101D8000C5309B0706D1FF2380F82A31684608F04A
:101D90000BFAEBE70249C63009F029FAE6E700BF83
:101DA000B7B80000F7B5077805460C46EF2F0FD8F7
:101DB00090F901204378002A0ADB8278900707D146
:101DC00013F010001DD1990603F0030202D51AB1D9
:101DD000122442E0032AFBD01E07F9D42979EA78BD
:101DE000EE7942EA0122697942EA0142A97941EA9F
:101DF00006212E7A41EA06418A42E9D81F2A0FD8E5
:101E0000E6E713F0600FE3D103F00702052A05D0DF
:101E100003F00F010D22CA40D107D9D51A07DDD52D
:101E20006A7A013A062AD3D8AA7A032AD0D813F0BC
:101E3000040102D1023A012A03D8EA7A012AC7D85A
:101E400011B9AA7C032AC3D82A7D48B1012ABFD17F
:101E50002A7E012ABCD830B91124204603B0F0BD37
:101E6000022AF5D1B4E7DB0712D46B782A7D03F0A0
:101E70001803082B11D1022AEED101213846FEF7B2
:101E80001FFF064678B109F0D6FFB8B10C24E4E78D
:101E900000F0A2F90028E8D1DEE7022AEDD02B7F7E
:101EA000002BEAD0D8E701213846FEF7CDFE0646E2
:101EB00040B3154B93F906100AF009F830460AF0C2
:101EC000F6F829462070E87430460AF046F8EB7EB2
:101ED0000446002BC1D00028BFD10246B16A684633
:101EE00007F0FFFE2246B06A012107F045FFB16A04
:101EF0006846042207F0F5FE22462146B06A07F044
:101F00003BFFAAE70724A8E7C00F002030B50279FD
:101F10008BB00346042A4FD84088B0F5804F4BD889
:101F2000264900248D5C1144ADF800404A798DF8B3
:101F3000084042F010028DF8244042EA45028D7AB2
:101F4000C97B42EA850242EAC102694602F01F02E9
:101F50008DF80020BDF80020ADF809201A888DF812
:101F60000E00000A8DF80B20120A8DF80D408DF836
:101F70000C208DF80F008DF810405A7BD3F8070025
:101F80008DF811205A79059002A88DF812209A79BF
:101F90008DF81320B3F80B209B7BADF818208DF83B
:101FA0001A307F238DF81B304FF00113CDE9073431
:101FB000FFF7F8FE0BB030BD1220FBE749530300DA
:101FC000F7B50646FFF782FD04460AF07BF8337842
:101FD0000546012B61D1204609F0ACFF00287BD0DB
:101FE00020460AF06FF818B115B9122003B0F0BD01
:101FF000204609F020FF08B10C20F7E7204609F041
:1020000057FF07460028F7D1204602F095FC00282C
:10201000EBD0ED0142F2107339462046ADB25D437C
:102020000AF03CF820460AF045F8014658B92A461D
:10203000204601F0E5FE08B90020D7E741F6484107
:102040003920FEF79FFA39460DF10600FEF7C4FD70
:10205000064608B90D20C9E7394608F024FEBDF848
:1020600006303146204633800AF030F801213046F0
:10207000FFF78EFD2A463146204601F0C1FE02469A
:1020800010B141F66B41DBE7144B9B68002BD3D0BA
:1020900006F58D7130469847CEE7002BA5D1204636
:1020A00009F048FFC0B1204609F0C5FE0028C3D0A2
:1020B000204609F06DFD0546204609F06CFD0146FD
:1020C000002899D1002DB7D02888FEF70FFE0028F0
:1020D000B2D041F68D41B3E7422087E7C00F002020
:1020E0000278034672B1427862B142881A2A09D94D
:1020F00082881A2A06D90068034A106000209B884B
:102100009380704712207047E4130020026800207B
:10211000014B9A60704700BFE41300200378A3F1DD
:102120000A02112A9BBF024A002012201374704732
:10213000E413002008B5052000F082F803F08AFCC3
:10214000014B024A9A6008BDC00F0020051A00002A
:1021500008B50122084B1A7002F0DEFB0AF06DF997
:1021600008F050FDFFF726FB002007F087FDBDE8D3
:10217000084000F093BD00BFCC0F002010B5064C06
:102180000649201D08F008FB04F108000449BDE8D9
:10219000104008F001BB00BFCC0F0020B4000020AD
:1021A000BC00002010B5084C0849201D08F0F4FAC6
:1021B00004F10800064908F0EFFA04F10C000549A3
:1021C000BDE8104008F0E8BACC0F0020C4000020A1
:1021D000CC000020D4000020014B1878704700BFCD
:1021E000CC0F002010B5064C00F034FD606808F0FC
:1021F000CBFAFFF7C1FC00F00FFF0123237410BDE1
:10220000CC0F0020014B187C704700BFCC0F002082
:1022100010B5064CA06808F0B7FAE06808F0B4FA08
:10222000FFF782FC0023237410BD00BFCC0F0020F9
:1022300000487047DD0F002000487047DF10002085
:10224000C208044900F0070001238340885C03436F
:102250008B54704770000020014BD3E90001704798
:1022600070000020034B1868C0F30020400040F0CD
:10227000010070477000002008B505F03BFA00230C
:10228000074A32F82310814205D302EB8302937888
:10229000044A137008BD01330C2BF2D10023F7E779
:1022A0005E530300E111002010B54468238884F8D0
:1022B0006711A4F8683194F86830012B06D0022B1E
:1022C00004D04FF449710620FEF75CF984F86A31B6
:1022D00094F86930012B01D0022BF2D184F86B31D4
:1022E00004F5AF70034908F082FF002384F824311D
:1022F00010BD00BF25A8000040680749038800F210
:102300005110A0F8093010F8F13CC37210F8F03CFD
:10231000037308F066BF00BF3BA80000024B002219
:1023200083F822209A847047E2110020044B93F82E
:102330002220012A1ABF036001200020704700BF3D
:10234000E2110020054B024693F8221001291BBF21
:1023500001209A84002083F822007047E2110020B7
:10236000054B024693F8220020B1136009B19B8C03
:102370000B800120704700BFE2110020044B0022B7
:1023800093F822009A8410B1012083F8222070472C
:10239000E2110020034B93F82200B0FA80F04009CC
:1023A000704700BFE211002050B90A4A01201346CD
:1023B00003F8010B0868C2F801008A889A80704708
:1023C000012805D1034B0A68D8719A608A889A81DE
:1023D000704700BF0812002050B90B4B187888B125
:1023E000D3F80120B3F805300A6001208B807047D4
:1023F000012806D1044BD87920B19A689B890A60DC
:10240000F3E70020704700BF0812002010B9044B0A
:1024100018787047012806BF014BD8790020704713
:1024200008120020F7B58A8800238DF80600ADF861
:10243000042008680B4A8DF807300146147802F52D
:10244000A872019DD8B2844201D8082007E052F852
:10245000087F01335668AE4208BF8F42F2D103B005
:10246000F0BD00BF18120020084B0146002230B515
:102470005C7803F20113D0B2844201D8082004E052
:1024800013F8015F01328D42F5D130BD18120020E2
:10249000F8B52D4C63782218013B92F80251DBB25B
:1024A0008342637030D01A010101961C8F1C2644B0
:1024B000274406F1100C56F804EB664547F804EB88
:1024C000F9D1823282312244214402F1100652F8BD
:1024D000047BB24241F8047BF9D1E118221891F84B
:1024E000026182F8026106267343704303F5857327
:1024F00000F58570E618E35827182350B388BB8091
:1025000091F83A3182F83A312846FFF7ADFF0828B2
:1025100018D12378013BDBB29D42237012D02B33BC
:1025200005F12B0204EBC30304EBC20293E80300A2
:1025300082E803002078FFF797FF08281CBF2418C3
:1025400084F80251F8BD00BF18120020F0B5254DE7
:1025500089B095F8984105F299116846224606F02F
:10256000F7FE2146684608F06EFB0446B8B300EB60
:10257000400102A8C9B2FEF745F9631E95F8A161B2
:102580000124DBB295F8981105E0721CB2FBF1F062
:1025900001FB1022D6B206F120020DEB020010F86A
:1025A000202C002AF1D103EB430100F8204C06EB6C
:1025B000460220312A44694411F8187C82F8A2713D
:1025C00011F8177C11F8161C82F8A37182F8A41177
:1025D000013BAA19DBB282F89941FF2BD2D109B095
:1025E000F0BD00BF1812002070B5064688B00C463A
:1025F000002A4ED0294A92F8A131D01890F89911AA
:1026000019B9FF212820FDF7BDFF03EB430101337A
:10261000114491F8A251E57091F8A35191F8A411D9
:1026200025716171002180F8991192F89811B3FB1E
:10263000F1F001FB103382F8A13192F8C23123B9D5
:10264000174902F5DD7008F0CFFD65790D220021F4
:10265000684605F03F0545F0400565710AF00EFC3F
:10266000E37804AA69468DF80F30304623798DF857
:102670000D508DF80E3004230AF06AFB9DF81F30D0
:1026800023709DF81E3063709DF81D30A37008B054
:1026900070BD03216018FEF7B5F8D6E718120020C8
:1026A0004D250000044B5A78824286BF1B1893F8D0
:1026B0004A010020704700BF18120020044B5A78CE
:1026C000824286BF1B1893F842010020704700BF6A
:1026D00018120020064B00224FF461711A8083F813
:1026E000C32183F8C421A3F8C61183F8C22170471F
:1026F000181200202DE9F047824689461746984671
:10270000FFF790FE08280546064603D0FFF7ACFE0B
:10271000082860D1324C6378072B5ED8082D15D17C
:102720002678731C072E237003D96C212820FDF70F
:1027300029FF06F12B02D9F8000004EBC20344F88C
:102740003200B9F8042083F806A09A80657807F172
:1027500010026B1C290163704B1C234412F8010DFD
:10276000BA4203F8010FF9D1813108F11003214475
:1027700013F8012D984501F8012FF9D125441021B6
:10278000404608F0D9FA102185F84201384608F091
:10279000D3FA85F802616678002385F84A0131464C
:1027A000104885F83A3108F04EFA0128054607D856
:1027B00031460D4808F047FA002818BF0135EDB240
:1027C00084F898510025284684F8A151FFF7BEFEF1
:1027D0002846BDE8F0871220FBE70720F9E700BF95
:1027E000181200205A13002062130020064B10B567
:1027F0005878013840B2002800DA10BDC4B2204633
:10280000FFF746FE601EF5E718120020014B83F823
:10281000C301704718120020014B93F8C3017047A1
:1028200018120020431E4AF2B7129BB293429DBF7A
:10283000024BA3F8C60101200020704718120020A7
:10284000014BB3F8C6017047181200200A4B30B58F
:102850005C7884420ED9184490F802012B3003EBC7
:10286000C004A5790D7053F8300010600120A388D2
:10287000938030BD0020FCE7181200200246074874
:1028800010B590F8C34124B1417821B1023003F072
:1028900043F9204610BD0C46FBE700BF181200208C
:1028A0002DE9F74F2F4C9A4680468946637883423C
:1028B00056D9231893F8425185F00105F9B193F8E0
:1028C0004A31E3B945F002070135BAF1000F18D1DA
:1028D000FA070AD5062104EB0810524601FB08410D
:1028E000823001F58571FFF77FFEBB0734D504EB1D
:1028F0000810524649460230FFF776FE2CE02F467C
:10290000E3E794F8A1614FF0010B002DE0D0A3198B
:1029100093F89911019399B90092DAB100F04CFB48
:10292000019B06EB4601009A4FEA102C83F899B1FF
:10293000214481F8A201000C81F8A3C181F8A4010F
:10294000013694F89831013DB6FBF3F103FB1166B3
:10295000F6B2DAE747F00407384603B0BDE8F08F77
:102960000027F9E718120020074B5A78824209D94C
:102970001A1892F842212AB9062202FB003000F50B
:10298000857070470020704718120020064B5A7857
:10299000824281BF1B1893F83A01B0FA80F04009D7
:1029A00098BF0020704700BF18120020F8B50E46EF
:1029B000074606211546304608F0BEF9044670B1B8
:1029C0000C4B0022587803F23913D1B2884202D856
:1029D00001242046F8BD013203F8015FF5E73146D6
:1029E000384608F04CF90828F3D0024B034483F82A
:1029F0003A51EDE71812002030B5002442F210756C
:102A00008487B0F840404C43B4FBF2F4A0F8404057
:102A1000541E05FB0343B3FBF2F3C387084BB3FB20
:102A2000F2F30133A0F84430038F05FB0344036B3A
:102A30005943B4FBF2F4B1FBF2F14463016330BDDE
:102A4000005A6202034B80F870101B680BB10088BB
:102A500018477047DC0000200B2808B504D94FF454
:102A6000D8712920FDF78EFD014B33F8100008BD09
:102A70008E5303000346084671B13F2B0BD8074A1B
:102A8000D35C03F07F02914205D08CBF012000206F
:102A900000EAD31070470120704700BFA65303001F
:102AA0002DE9F7430E4669461546994608F0B9F9EF
:102AB000044620B9019F35B9012387F88C300120E5
:102AC00003B0BDE8F083D7F810802946404606F0F1
:102AD0001CFF01460028F3D0134B5B88AB4221D387
:102AE000404607F04EF897F88C304946A0F8014070
:102AF000002B2A4618BF022600F8036B06F028FCBC
:102B00002946404606F03CFF18B98B212B20FDF7E3
:102B100039FD684607F048FB019BA3F8A24187F8FE
:102B20008C40CCE72046CBE7E413002083230B70D6
:102B3000014B1B78CB707047FC1300202DE9F84F38
:102B4000D0F804800D46D8F81460304607F00BF832
:102B5000044620B94FF4A4711020FDF713FD01467F
:102B6000304607F00EF8B4F800B082461FFA8BF931
:102B7000B9F1000F02D14FF4A671EDE71E4BC71C4F
:102B80001B688BB9B8F80030A5F806B0AB800023FD
:102B90006B729AF8003003F00303012B0FD0022B65
:102BA0000DD04FF4B371D7E74A463946B8F8000064
:102BB000984704460028E5D12046BDE8F88F304606
:102BC0002B7206F0E4FF044610B940F26F11C3E720
:102BD000B9F1FB0F02D94FF4BF71BDE7286810B9F6
:102BE00040F27F11B8E74A46394606F0B1FB30465D
:102BF00006F028FFE0E700BFE000002038B5134CE6
:102C000010220021201D0AF039F90125257404F154
:102C100008031022002104F11400C4E901330AF072
:102C20002DF984F8205004F11803094AC4E905334A
:102C300000236362A36284F82C30C4F82D30C4F8FA
:102C4000313084F835301360A36338BDFC130020A5
:102C5000E000002010B5084C2378FF2B04D040F290
:102C600089111020FDF78EFC06F0DEFA2070BDE819
:102C70001040FFF7C3BF00BF7D00002010B5034C1C
:102C8000207806F0EBFAFF23237010BD7D000020B2
:102C9000014B187806F0F2BA7D000020014B024A81
:102CA0001A607047E40000203D2B00002DE9F3413D
:102CB000DFF86881054608F11407D8F80830D8F81D
:102CC0001840227A012A22D1D8F8382052B1137A3A
:102CD0001BB9BB211020FDF755FCD8F83840C4B90A
:102CE000002083E01A7A012AFAD01C464C4AEFF3FE
:102CF000108172B650680068506001B962B6A34294
:102D000008BFC8F83840237A1BB9EA21E2E73A46FF
:102D1000EDE7267AF6B205232372731E0B2B6ED8CD
:102D2000DFE803F06A062235676D3E6D6D6D6D5B01
:102D3000636813B94FF4FE71CCE7204629469847E3
:102D40000420EFF3108272B6237A052BD9B24FF02C
:102D5000000359D12372D8F83810A14201D1C8F824
:102D60003830B2BB62B634E0636813B940F2052173
:102D7000B0E72946204698470346ADF80400C0B2A4
:102D8000C3F30723012B2FD0022BDAD11AE063689B
:102D900013B940F20D219DE7204698470020D0E767
:102DA00063680BB9FA2195E70B222A700122198872
:102DB000AA706A7100221869A5F80310AA7106F0BA
:102DC00041FE0420D8F83830A34202D10023C8F8CD
:102DD000383000283FF471AF08E0124B29462046F6
:102DE0001B689847034668B9267298B102B0BDE8DF
:102DF000F0814FF411716DE740F247216AE740F22C
:102E00004A2167E70220DDE711B940F26B2161E753
:102E10001846A6E7002B7FF450AF61E7FC130020B3
:102E200000140020E4000020134610B5027A22B1FD
:102E300040F2F2211020FDF7A5FB0A4601460248A8
:102E4000BDE8104008F0ADB900140020044890F827
:102E50002C301BB90349243008F0C0B9704700BFBB
:102E6000FC13002095B100000346064890F83C2072
:102E70003AB190F8352022B9034900F82D3B08F00B
:102E8000ADB97047FC1300202D2B00000A4610B589
:102E9000037A23B140F2FA211020FDF773FB0146BB
:102EA00007230248BDE8104008F07BB91014002049
:102EB0001346027A0AB1037270470A460146014876
:102EC00008F06FB9001400201B234FF01B128384FD
:102ED000038482618382C260038539B94FF4A4738D
:102EE000034AC3844384C261C3820261704700BF46
:102EF0004801480103460846F0B4B3F85420B3F83B
:102F00004840B3F856109442B3F84460DF8F28BFAE
:102F10001446B3F84C20B3F842508A42DC8728BFED
:102F20000A46B3F846109142A3F8422038BF114632
:102F3000A64238BF2646A742A3F84610A3F844602D
:102F40001FD1AA1A18BF0122B3F84A50B3F8504053
:102F5000B3F85270A5429E8FB3F8401028BF2546A3
:102F6000B3F84E40BC429D8728BF3C46AE42A3F812
:102F7000404002D1A14200D12AB10449F0BC08F07E
:102F800036B90122E0E7F0BC704700BFF5B10000A0
:102F90000B8BA2F809001046A2F80B304B8BA2F85D
:102FA0000D308B8BA2F80F30CB8B0249A2F8113079
:102FB00008F017B945B20000094AD2E900034340BE
:102FC00083EAB01181EA43214FEAF3431160536071
:102FD000044B58434FEAF06000EB8000704700BF9D
:102FE0003C140020BB79379E094AD2E900034340D4
:102FF00083EAB01181EA43214FEAF3431160536041
:10300000044B58434FEAF06000EB8000704700BF6C
:1030100080000020BB79379E10B50A4C0821094872
:10302000FDF7F0FBD4E900321343F7D0064CFFF76D
:10303000DBFF2060FFF7D8FF236860601843F6D0FD
:1030400010BD00BF800000203C140020174B184A20
:103050009A60184A5A60184A1A60184A9A62184ABE
:10306000DA62184ADA60184A9A61184A1A63184AEA
:103070001A62184ADA64184A9A64184A5A62184B53
:10308000184A9A60184A5A62184ADA62184A1A614B
:10309000184A5A61184A9A61184A1A63184A9A6477
:1030A000184ADA64184A9A63704700BFE8000020A3
:1030B000FBB400002BB5000097B50000FBB6000084
:1030C0004FB70000FD33000065B700005536000023
:1030D000E934000033B800004FB800003535000077
:1030E000E801002017B5000005B8000087B7000010
:1030F0002BB70000ABB7000089340000D5B8000042
:103100007DB800006FB80000EBB70000044B054A23
:103110005A65054B054A1A65054A5A65704700BF4E
:10312000E800002041B60000E801002027B60000BA
:10313000A7B60000054B064A9A65064A1A66064B72
:10314000064A9A65064ADA65704700BFE800002023
:10315000C1A9000063AA0000E80100200DA9000039
:10316000E5AB0000023A08B5232A00F29A80DFE8B6
:1031700002F012981E9B9B2E9830989B35414598E3
:1031800098499B9B5D5D74749898989898989898C6
:103190009898987B889102784368012A02D193F825
:1031A000103101E093F8193102204B700EE04268B3
:1031B000D2F8BE31C1F80130D2F8C231C1F80530C1
:1031C00043680D20D3F80431C1F8093008BD4368C5
:1031D000E5E700F005FA0028F8D148E010230620C2
:1031E0004B7059238B700023CB7089230B713023D4
:1031F0004B71EBE7436893F80A31D5E7084600F0D6
:10320000DDF9E8E70278436852B993F810213AB142
:1032100093F80D214A7093F80C3103208B70D5E799
:1032200093F80B214A7093F80A31F6E743680920B6
:10323000B3F854204A70120A8A70B3F81221CA7087
:10324000120A0A71B3F850204A71120A8A71B3F84F
:103250001031CB711B0A0B72B8E7436893F8262133
:103260004A7093F82731D8E7104B1B6823B940F216
:103270000D515120FDF786F902462320984704207E
:10328000A4E70A4B1B68002BF1D002462420984784
:1032900005209BE7054B1B68002BE8D00246252044
:1032A000F5E74FF4A161E4E701208FE7E802002091
:1032B0003F289ABF024B53F820000020704700BF00
:1032C000E80000203F289ABF024B53F8200000205E
:1032D000704700BFE8010020F7B5456804464FF687
:1032E000FF772E690DF102010DF101023046ADF8B4
:1032F000027006F060FB01A9304606F07EFB40B18B
:10330000019806F042FC616800220272FFF7BEFDE0
:10331000E8E7044905F19E0003B0BDE8F04007F07E
:1033200060BF00BF8FB40000F0B5044685B00D4605
:10333000FF2600F8A56C10F8A63CF3B1174F3B78B8
:103340001BB14D211F20FDF71DF90C21381DFDF784
:1033500059FA3E70002304F8A53C07232A4602F8D8
:10336000033BD4F80930C5F80330D4F80D3053606E
:10337000D4F81130936005B0F0BD01A80C21FDF721
:1033800041FAA4F5B473039A1A6001AB03CB44F875
:10339000AE0C44F8AA1C04F8A66CDBE74414002029
:1033A00010B5054C23782BB90C21201DFDF72AFA06
:1033B000FF23237010BD00BF44140020024690F884
:1033C000C631BBB990F8C73103F0FF010BB1002043
:1033D0007047094B18780028F9D01970D968043360
:1033E000C2F8041103CBC2F8BE01C2F8C211FF2318
:1033F00082F8C6310120704744140020426838B575
:1034000092F8863004460D463BB1132B05D0113B94
:103410000D2B8CBF0120082038BD92F8C43013B9A1
:10342000204607F0F1FF6268D5F80B30C2F8B631DC
:10343000D5F80F30C2F8BA316368D5F81320C3F855
:1034400000211A88A3F87522D5F80120C3F8772245
:10345000D5F80520C3F87B226368B5F80920A3F8E6
:103460007F226368002583F8C6516068054900F52E
:103470001B7007F0B3FE63681522284683F8862088
:10348000CAE700BF2933000038B54368044693F803
:1034900086201E2A04D040F2FF111F20FDF772F88B
:1034A000002293F8C4101D8803F5C97083F8C32067
:1034B00069B10B4983F8C420A3F89C5183F89B2180
:1034C00007F08CFE6368002283F8862038BD012255
:1034D00083F89B11A3F89C51024983F89E21EFE7E2
:1034E000E7B60000D9B6000038B54568AB6F13F0F9
:1034F000010419D1D1F801200C4BD1F8051013406B
:103500000B4AC5F8D430C3F307630A4043F00803FD
:10351000C5F8D82085F8D73007F076FFAB6F204686
:1035200043F00103AB6738BD0120FCE72FC904F766
:103530006FDB0080406810B590F88530042B28D1EF
:10354000D1F801304A1CD1F80540C0F8D430C3F39B
:103550000763C0F8D84043F0080380F8D730002351
:1035600080F8BE3080F8853090F8743103F0FF04A5
:103570000BB1002010BD038800F5B6704472438182
:10358000D1F801300449C3605368036107F026FE97
:10359000EFE70120EEE700BFC9B70000406890F8F0
:1035A000743143B9038800F5B670034943811A2387
:1035B000437207F013BE7047C9B7000010B5044648
:1035C000FEF74AFE044A054B024009200B40C4F8AE
:1035D0000120C4F8053010BD2FC904F76FDB00804F
:1035E00037B50C464568FEF737FE0A4B0A4A0340DA
:1035F0000A4095F8D41000930B4001928DF80030EA
:103600006B4603CBC4F801000920C4F8051003B0D1
:1036100030BD00BF2FC904F76FDB008038B5DB0475
:10362000154604D5C37C13B10023036338BD046B76
:103630000134046308F02FF9436B9C42F6D3002356
:10364000034903632846BDE8384007F0D0BD00BFFA
:1036500025B8000038B54468054694F88530012B3C
:1036600002D0A36F98073AD494F8C5309A0713D4C0
:103670004A78D80784F8CF204A88A4F8D0208A88CE
:10368000A4F8D22043F0020284F8C5200FD51549D2
:1036900004F1C60007F0ABFD94F8C530D90711D48A
:1036A000A36F9A0708D558214020FCF76BFF94F8C8
:1036B0002A31002BEBD1EFE743F002032846A36742
:1036C00007F0A2FE94F88530012B4FF0000301D0E3
:1036D000002038BD84F8853084F8BE30F8E701203A
:1036E000F7E700BFB7B8000070B54568044602F0C0
:1036F000CFF9054B014685F883001B681BB12046B6
:10370000BDE87040184770BDF0020020024B1B68F6
:1037100003B11847704700BFEC020020F0B51F4D01
:1037200000242B7814709BB1013B6D68DBB21E1B2B
:10373000012E0FDC05EBC40655F8347076688E4216
:1037400008BF874227D0B84271EB060612D2147028
:103750000020F0BD1E197710C6F3470655F837C094
:1037600005EBC70E8445DEF804708F412CBF33464D
:103770003446DCE705EBC30455F8335064688C42EB
:1037800008BF854206D0A84271EB040428BF01336C
:103790001370DDE71C4601201470DAE76414002082
:1037A00010F0070208B503D063214820FCF7EAFEB9
:1037B00018B1034B197258601A70C80008BD00BFD9
:1037C00064140020014B00221A707047641400201A
:1037D0000A460648822302F8033B0368C1F8033017
:1037E0004368536083689360704700BF6D14002086
:1037F00016220021014809F041BB00BF6D140020D2
:1038000082B002AB03E903000D48437DB3B1530618
:1038100014D50A880C30B1F87E3020F80C2CD1F881
:10382000402220F80A3C40F8082CD1F844220549EF
:1038300040F8042C022202B0FFF73ABB02B07047F6
:103840006D140020D1370000094B53F8203003F5E8
:10385000224370B5B13316464FF47A720C46B3FB6F
:10386000F2F5344402F0B0FF2C44204470BD00BF98
:10387000AC5403002DE9F04F8BB0044698460F4638
:10388000039290F8699006F0CBFF824694F873009B
:10389000FFF7E2F8824408F063F894F8863000F10C
:1038A0003C061FFA8AFA0293039B83BB94F8843088
:1038B000032B2CD1029B0D2B29D1B4F85C32BB42D7
:1038C00025D1D4F8E0312046B4F8B421C4F8D03181
:1038D000A369C4F8D431B4F852321344C4F8D831CF
:1038E00002F088F8D4E99823A262B4F85E22A361BA
:1038F000A285D4F86822226241F64B5293428CBFD3
:103900000023012384F87230022384F88430B4F851
:10391000505204F50873B4F87EE07D1B0493A7EBC6
:103920000E0E2DB20FFA8EFE002D10DA7546D4E978
:103930008E23C4E99223012294F88430032B00F2F1
:103940006F81DFE813F00600FE00550020014246BB
:10395000F2E70121002007F04EFA8146A06A5146A5
:10396000484403F07BFE5146C4F8DC01A06903F033
:1039700075FE07A9C4F8E00108A802F045FE079B00
:103980000093DDE90823D4E9920108F036FE83466E
:10399000204607F0FDFFA26AD4F8543294F869007B
:1039A000D51802F019FFD4F8DC1100F52240203DB3
:1039B0004FF47A73B13032466D1A3031AD1BB0FB23
:1039C000F3F04D44A38DA5EB0B0503EB41012D1A3C
:1039D00094F86900FFF738FFD4F85432C4F8E401D2
:1039E000EB1ACC2B59D840F2C6413020FCF7CAFD67
:1039F000A36A5146D4F8D401184403F02FFE51466F
:103A0000C4F8DC01A06903F029FEC4F8E0012046F7
:103A100007F0BEFFA36AD4F8D4511D44B4F8B43102
:103A2000002B40F08A80B8F1000F00F0868094F8F7
:103A3000690002F0D1FED4F8DC11D4F8403200F570
:103A400022406D1A94F86920B130203D1D448F4BFF
:103A500053F822204FF47A7302F2E732D4E98E9AB7
:103A6000B2FBF3F2A5EB0905B0FBF3F01544AD1B77
:103A70002D1AD4F8D821D4F8D03194F8690002FB7B
:103A80000313A18D3246303301EB4301FFF7DCFE17
:103A90000123C4F8E40184F88430A369D4F8E02158
:103AA000A93B9B1A9E1B0023864284F82032D4E94E
:103AB000923228BF064604F130005B19C4F8B061A9
:103AC00042F10002C4E98C3207F008FC04233044C0
:103AD000A4F8507284F82932C4F82402D4E98C2363
:103AE000C4E99223B4F8A031DB1B1BB2002BD4BF76
:103AF00000220122520084F82822029A0D2A00F0A6
:103B00009280B8F1000F40F0918094F88430002B3F
:103B100000F0A880A16904F50870D4F8E031C91A52
:103B200007F016F980B2002800F09C80149B03B1C6
:103B3000188001200BB0BDE8F08FD4F8DC116D1AAD
:103B400097E7D4F8E021A369B4F8B4C19B1AD4F87C
:103B5000D811F444D4F8D0015D43D4F8DC31ACEB97
:103B6000010C30330CF1FF3C00FB0133A18D94F8C4
:103B7000690002FB0C33324601EB4301FFF764FEA0
:103B8000C4F8E40189E7D4F8E0A1A369A3EB0A0330
:103B90005D4394F88530272B03D094F88630272B8B
:103BA00009D1B4F85C32FB1A1B0404D494F85F32D8
:103BB000002B18BF9946B4F8B4C142B3BCF1000F52
:103BC00025D1D4E99023D4E98E01904271EB03030F
:103BD00002D340F21A5108E794F869104FF47A7B47
:103BE0002A4B203A53F82130D4E98E01CDE9040163
:103BF00003F2E73103F522430498B133121AB1FB03
:103C0000FBF1B3FBFBF30A44D21A921B15440CEBF5
:103C10000E01324648460AFB01F130314900ADE75A
:103C200040F23251E1E6B8F1000F1BD0B4F8C80100
:103C300010B3B4F8CA1194F8CC214D1CA4F8CA11E1
:103C400001FB022290420DDD002B0BDD0023A4F8C6
:103C5000CA5184F82832FFF7AFF900F007000130AD
:103C600084F8CC0104F5087104F5FC7004F034FD0F
:103C700020B940F27C51B8E60146DCE7039B83F0B3
:103C8000010384F8F031002054E700BFAC54030076
:103C90002DE9F8430E46044618B9D4213020FCF72C
:103CA00071FC052900F2A780DFE801F00376413DB1
:103CB000A52E08F057FDC4E94601204600F05EFF3E
:103CC000D4F80C01A43808F092FC204608F0FAF968
:103CD000054600BB0146204608F031F900F1AE066A
:103CE000D4F80C01B04209D2301A0321192838BF88
:103CF000192008F009FD60B108F07BFCC4F80C61E4
:103D0000204608F0EFF945B12046BDE8F84308F039
:103D1000EAB90125F2E70025F2E7D4E94623C4E930
:103D20004023BDE8F883BDE8F84302F079BC08F011
:103D300011F904238146884684F8113108F055FCB6
:103D400007220F46A9FB023102FB0811D4E94052B9
:103D50005B1941EB0205D4F8E8203AB159EA0802B0
:103D600004D0984277EB050228BF012684F8106141
:103D7000D4E94826121A66EB070694F8301139B9CF
:103D8000012A76F100010BDA204600F0FFFE03E085
:103D9000012A76F10006F7DB002384F82831C0E71A
:103DA000984277EB05010FD259EA08080CD01B1A8C
:103DB00065EB07019A4276EB010005DB012B71F1FF
:103DC0000000A4BF1A460E460C49012304F1C000AE
:103DD000914284F829314FF0000384F80831B3414F
:103DE000B8BF0A4604F5847104F006FD002898D196
:103DF00040F2B96152E7F02150E700BF0040420FA6
:103E00002DE9F84304460E46154690F8283103F094
:103E1000FF07002B40F0948000F1C008394678225B
:103E2000404609F02BF822464649404608F017FD67
:103E3000C4F8E860FF2384F8283166B1FFF7D4F8AE
:103E400000F0070032464049013086F8CC0106F503
:103E5000FC7008F004FD40F202434FF00009A4F8A2
:103E6000103184F8089103F04FFC00F14906204618
:103E700008F028F90146B6B2C0B306F0D1FC00F54F
:103E8000CD61284689B203F0E9FB2844AE3DC4F871
:103E90000C0108F0AAFB3018A4F81E9041F10001B3
:103EA000C4E94601012084F8EC0008F0B6F92D1AA7
:103EB000C4F8F0504FF0FF356FF000414046D4E9B0
:103EC0004623C4E94851002504F58471C4E93E2322
:103ED000C4E9402384F8295142F2107204F08CFCAA
:103EE00038BB4FF4DD713020FCF74CFB2046DFF887
:103EF0005C9008F024F8AE30C4F80C01B9F800006A
:103F000048B1E08B38B1FFF76FF8B9F80030B0FB7B
:103F1000F3F202FB1300064408F067FB361841F188
:103F20000001C4E94661002DC4D0AD1941F1000182
:103F3000C4E72946204608F0D8F83846BDE8F8839B
:103F40000C27FAE7913C0000ABB900009014002068
:103F5000F0B5002385B0CDE9003301238DF806309C
:103F60006846FCF7E7FE70B10123114EB3700023E1
:103F7000CDE9023302A8FCF7DDFE044638B1002388
:103F8000B37005B0F0BD009807F005FEE8E7029DAC
:103F900095F88430002BEDD005F5FC77384604F019
:103FA000FBFB384608F081FC85F88440E2E700BF5F
:103FB00090140020044B0022DA709A7042F21072C2
:103FC0001A80FFF7C5BF00BF90140020014BD870C6
:103FD000704700BF9014002008B502F05BF8044B56
:103FE0005A6882422ABF9878002080F0010008BDFC
:103FF00090140020F7B5044606297AD8DFE801F0CE
:10400000042715252B3074003B4B9B7803F0FF02EF
:104010005BB900920123B0F8A411FFF72BFC38B173
:1040200040F2D5613020FCF7ADFA042384F88430E7
:1040300002F0D4F904F03CFB0023B4F87E20A4F88D
:104040005232A4F8EE2184F8F13103B0F0BD03231D
:1040500080F88430F9E708F051FAC4E99001F4E7F8
:1040600090F8690007F084FC7730D4F8E0319528A7
:10407000A569214F8CBF0020C0F19600C21895425F
:1040800088BFED1AFB7894BF00252D1A1BB9236B4E
:104090009D4228BF1D46D4F8B06104F1300007F0FE
:1040A0001DF90644022008F005FB0221AD1B25EA9C
:1040B000E575854228BF0546284608F025FB10B166
:1040C0002E4408F096FA01234FF4807231462046C0
:1040D00007F061F9D4F8B0317860A069184403B0F2
:1040E000BDE8F04008F083BA03B0BDE8F04007F047
:1040F0004FBC40F2A37195E790140020014B18804B
:10410000704700BF901400200346074A1068D3F898
:104110004920C0F80320B3F84D20A0F8072093F8F9
:10412000481006F07EBF00BF9814002070B504460A
:104130000E461346807D6588324615F0040118BF8F
:1041400004F15701FEF7ACFB4107054621D4C20735
:104150000BD50123A07D84F84830FEF705FC0368E9
:10416000C4F849308388A4F84D30AB0701D401204E
:1041700070BD094B01211868D4F8573084F85610E7
:10418000C0F80930B4F85B30A0F80D3006F052FFEB
:10419000EDE70020ECE700BF9814002038B5C38C91
:1041A00004460F4D0133C3F30E03C3842B7C2BB1A4
:1041B00002F0F6F901F008FD00232B7400232B71A7
:1041C00094F869302BB101212046BDE8384007F052
:1041D000B0BD637C13B1E28C9A42F4D20021F3E7C4
:1041E0009814002010B5074C2379012B05D1237CAE
:1041F0001BB102F0D5F901F0E7FCA069BDE8104061
:10420000FFF7CCBF9814002070B5254C2379012B03
:1042100004D040F675412D20FCF7B4F998B901257A
:10422000237C1BB102F0BCF901F0CEFC002D36D08E
:10423000A06907F0CBFC68B302F07CF8E369BDE845
:1042400070409B6818472168A26911F8095B02F168
:10425000490392F84820E80906F0D7FC0028DED090
:104260000021206806F00BFF0028D8D02379A06930
:10427000012B02D040F64F41CDE7237905F00F0125
:10428000E26903F180435269013B52F823309847B9
:104290000546C5E7A069BDE87040FFF77FBF70BD68
:1042A000981400200346074A906903B909B9FFF73B
:1042B00075BF1379D26903F180431269023B52F84A
:1042C000233018479814002003292DE9F0430546B0
:1042D00085B0174607D14388980723D40024204689
:1042E00005B0BDE8F083428890F86830D107DBB2B2
:1042F000F4D5002BF2D14FF00108DFF8D49099F8F3
:104300001060C6B106F0C5FC0828387016D002AAA5
:104310000DF10701FEF79AFA38B940F6EA612D204F
:10432000FCF730F94FF00208E7E702A99DF8070013
:1043300007F0FEFA06463B78082B08D1D9F80010A2
:1043400011F8030BC0F3801007F0F2FA0646D9F813
:10435000001005F1500395F84F2011F8030BC0F33E
:10436000801006F052FCD9F80010044611F8030B37
:10437000C0F3801006F083FC8146FEF707FB40B1D6
:10438000B9F1080F1BD04846FEF78CF980F0010305
:10439000D8B23A78082A14D01CB9AC7DA21A54427B
:1043A00054416A8853079AD4002897D176B9EC7C97
:1043B000444518BF002C0CBF012400248FE70020C7
:1043C000E7E780F001022240D4B2EAE7344686E70C
:1043D000981400202DE9F04F85B0082305210446EC
:1043E0000DF107028DF80730FFF76EFF064620B982
:1043F0000026304605B0BDE8F08F734F396807F1ED
:1044000012037A7C11F8030BC0F3801006F0FDFB59
:1044100080460028ECD13B6840F2E249A169184689
:1044200091F88D2010F8035B02EA55121D4602F048
:10443000010281F88D20D3F80320C1F8032082887F
:10444000A1F8072015F81F1BA269C1F38011917014
:1044500002A9D3F81F00029028790871D3F80F0041
:10446000D061587D1D7D000440EA0520DD7C284395
:104470005062B3F8190082F8728009FB00F0906175
:104480009D7DC5EB451005EB800505EB85056D00B1
:104490009585B3F8170009FB00F09062B3F81B0094
:1044A0001084B3F81D00508493F8243003F01F00EB
:1044B0005B0982F8990082F87330A56994F912A01B
:1044C00005F18D0006F00AFD40F20113A5F86830F1
:1044D0004FF0FF0B85F86AB0414605F13000FEF75A
:1044E000F3FC51462846FEF7ADFAA36984F87380C1
:1044F00004F17E011A8884F891B0A4F874204FF674
:10450000FF729DF80700A4F892209A69B2FBF9F2B5
:10451000A4F88A201A8CA4F88C205A8CA4F88E2037
:1045200093F8732084F89020627D5AB394F8482061
:10453000012A27D194F84E2002F0C002402A21D14E
:10454000D4F84920C4F87E20B4F84D208A80082889
:104550009A7803F1030504F1840184F8772004F1CB
:104560007802D3F8033027D0C4F88430AB888B802E
:1045700004F17701FEF76AF940B940F6D5312D20F4
:10458000FCF700F80022C4F87E20DFE794F87730CB
:1045900043F0020384F8773004F16A000B4906F017
:1045A0001DFE0B4B0022A0691B683A71002B3FF4E3
:1045B00020AF214698471CE7A367AB889380002370
:1045C000C4F884308B80E7E7981400205BBE0000BD
:1045D000F8020020032937B5044604D0052957D036
:1045E000012003B030BD08230DF107028DF807301C
:1045F000FFF76AFE0028F3D0237C2A4D03B39DF811
:10460000070094F8B630DBB92378082804F1B90222
:1046100084F8B7302DD004F1B801FEF717F920B9AE
:1046200040F663712D20FBF7ADFF94F8B83043F0EE
:10463000020384F8B8301C4904F1AE0006F0CEFD48
:104640002B68042220461A7006225A70FFF75CFD80
:10465000616B94F83820286806F002FD032328686F
:104660002B7101F021FF0021286807F051FF002085
:10467000B7E72868034613F8031BC1F3801184F8D9
:10468000B810D0F80310C4F8B9109B889380D2E713
:10469000064B1B68002BEAD0984780F00100C0B29F
:1046A0009FE700BF9814002043BE0000F4020020E2
:1046B000F8B504460F4619B300F12005284607F067
:1046C00089FDA0B963881A072ED5284607F097FD03
:1046D0000646284607F07EFD301AC0B207F09DFD61
:1046E000494A936803442846936007F052FD2846E0
:1046F00007F054FD01F08CFD2179252001F0EEFC3E
:10470000414E002394F8562030680370437063884C
:10471000103B0D2B68D8DFE803F063675F0C67443C
:1047200067676767676767442046BDE8F840FFF73B
:1047300035BD06234370202303702046FFF7E4FCB9
:10474000638823F008039BB2152B05D094F8302022
:10475000E16A306806F075FC306801F0A5FE0021C2
:10476000306807F0D5FE022321790020337101F073
:104770005DFD054607B9F06063881B0704D507F0A7
:1047800049FD0544C4F8F4506388103B0D2B36D81E
:10479000DFE803F038352F2F352F353535353535F2
:1047A000352F0C2321214370034603F8091B52B116
:1047B000D4F857200121C0F80920B4F85B209A8072
:1047C00006F038FCB9E7226DC0F80920B4F854208F
:1047D0009A8094F84F10F3E7062303704370ACE718
:1047E000022303700623F9E740F24E612D20FBF708
:1047F000C9FE21790120BDE8F84001F0EBBE40F68A
:10480000E841F3E7F8BD00BF9814002038B54388AD
:104810000446102B04D10121BDE83840FFF748BF02
:104820000B4D2B7C23B101F0A9F9402001F0ACFE27
:10483000286801F039FE608810F0040002D1217967
:1048400001F0C8FE002001F07DFE01232B7138BD70
:1048500098140020024B01219869FFF729BF00BF7F
:104860009814002010B5124C237C1BB101F098FE67
:1048700001F0AAF9A06907F0A9F938B12379012B51
:1048800009D040F679312D20FBF77CFEA069BDE808
:104890001040FFF783BC2379E26903F18043A069EC
:1048A000D268013BBDE8104052F82330184700BFE2
:1048B00098140020074810B5037903F0FF0433B9BA
:1048C00014222146043008F0D9FA204610BD0C24E9
:1048D000FBE700BF9814002010B50023094C23719A
:1048E000FDF7A6FC2060FFF7E5FF20B140F2FD21B7
:1048F0002D20FBF747FEE36913B94FF44071F7E74A
:1049000010BD00BF98140020014B024ADA617047C5
:1049100098140020D04B0000034B044A1A60044B4B
:10492000044A1A60704700BFF4020020D54300001B
:10493000F8020020E3BC0000F8B5057D0446AF1E78
:10494000FFB2002D3AD0012F2DD800F1500190F880
:104950004F0006F094F90828064624D0FDF7AEFE75
:1049600010BB023D18BF0125012F84F84850A675E1
:104970008CBF002701276775FDF762FF054607F02A
:1049800034FE0022144B84F85620E5FB0301C4E9F1
:10499000100111462046FFF7C9FB70B94FF493612F
:1049A0002D20FBF7EFFD0826022D09D104F1490166
:1049B0000020FDF711FD60B90020F8BD0826F5E7DD
:1049C00004F149010120FDF707FD0028F4D001257D
:1049D000CAE70025C8E700BF40420F00F0B5444ECB
:1049E00085B00446327902F0FF0312B90278FF2A3B
:1049F00004D140F6D1112D20FBF7C4FDB36080F83F
:104A000069303C4B684604F1200500933A4B019312
:104A10003A4B0293F3695B68039301F03DFD01F0AB
:104A200089FB01F0BDFD01F0CFF8354801F0E6FB50
:104A3000344801F02BFD284607F0ABFB284607F071
:104A4000ADFB01F0E5FB2179252001F047FB94F94E
:104A5000120001F0CDFB04F12C01A06A05F0AAF9C7
:104A6000074604F13401A06A05F0CBF90546DFB131
:104A7000237FCBB1B4F92650ED43ED0F637D13B91D
:104A800063885B0709D56FF00043D4E910129A429E
:104A900008BFB1F1FF3F0DD19DB930680330FDF77C
:104AA000EDFE307405B0F0BD002DE7D0657F002D20
:104AB000E0D1E3E707F099FDD4E910239042994152
:104AC000EAD3012229462046FFF730FB50B1FDF71B
:104AD000B7FE054607F089FD0B4BE5FB0301C4E972
:104AE0001001DAE7002DD8D040F60F2183E700BF90
:104AF000981400206548000009420000A54200000B
:104B0000D6BE898E5555550040420F0073B50446F8
:104B1000FFF764FF00212046FFF7CAFD236E0BB1AB
:104B200001221A606388DB0721D50023114EA56995
:104B3000CDE90033FF2373746846FCF7FBF8B0B986
:104B4000009CA542F8D005F10A036A7A04F10A0133
:104B5000607A06F05AF80028EED0A3787374D4F87F
:104B60000330C6F81230044BB4F807209A8002B024
:104B700070BD00BF98140020AA140020024B986159
:104B8000DB691B68184700BF9814002043881B0787
:104B900010B504460ED583693C2208496A3042723A
:104BA0001B884381FF2380F827304FF6FF7303856E
:104BB00006F014FBFF2384F8693010BD5BBE0000D3
:104BC000A7BE00000D480000ADBE0000D5450000A6
:104BD0000D4B0000E541000055480000C04B0000AF
:104BE000C44B0000CC4B00000138022808B503D9A3
:104BF000C4212F20FBF7C6FC13290A4B05D8112925
:104C00000CD8102907D0D221F3E71529FBD103EBEB
:104C10004003D88801E033F8100008BD03EB4003DF
:104C20009889FAE7285403000C4A0346117889B999
:104C3000906833B9B0F85810828F91420AD8FFF7C4
:104C4000CBB993891B0707D590F88700073818BFA1
:104C5000012070470020704701207047B8140020E1
:104C60002D4A38B50346948990681C43402B9481A3
:104C700004D10421BDE83840FFF7BCB9802B01D135
:104C80000521F7E703F00304032C04D140F6273194
:104C90003120FBF777FCDD0706D50C68116124781D
:104CA000062C0FD00B2C19D09C0706D50968097863
:104CB000052911751DD00B2927D09B0644BF082359
:104CC000137038BD90F886401A2CEDD100240025D1
:104CD000C0E93845012480F88A40E5E790F886402D
:104CE000122C01BF002480F88A40012480F8C440BF
:104CF000DAE790F886101729DFD10024002501217A
:104D0000C0E93A4580F88B10D7E790F88610112952
:104D1000D3D10021F6E700BFB814002073B50446D4
:104D200040680D46836F13F0300F4AD1B1F805107B
:104D30001A2904D9B5F80730B3F5A47F06D229782B
:104D4000204602B0BDE8704006F090BBB5F80120E7
:104D50001A2AF4D9B5F80360B6F5A47FEFD3303042
:104D6000009606F0CDFA184B9A8992070DD51B7D57
:104D7000142B0AD16268936F43F0100393672046A7
:104D800006F042FB002002B070BD636893F88520F6
:104D90001F2AEFD093F81B31002BEBD1636893F8F7
:104DA0001A31002BE6D16268936F114602F59F72AB
:104DB00043F0200331F8300B42F8C63CFEF7E8F828
:104DC000DDE70120DFE700BFB814002013B504467B
:104DD00001A8FDF7ABFA20B94FF411613120FBF7C0
:104DE000D1FB22220021019808F048F801992246BF
:104DF000064801F8034FFEF7B5F9FDF7A3FA10B91D
:104E000040F61711EAE702B010BD00BFBC14002045
:104E1000254B70B59C6894F85E5294F85F62002D43
:104E20003ED194F86810002E3CD194F8693084F893
:104E3000681084F86930FF2384F86A301B4B1B68C4
:104E40000BB12046984794F82431012B01D035430B
:104E500003D000211648FDF727FA04F1300630464A
:104E600006F03CFA04F2351105462046FEF742F8FA
:104E700020460621FFF7BEF8304606F02FFA85429D
:104E800004460BD207F072FC0146601B192838BF9C
:104E9000192007F039FC10B107F0ABFB012070BD01
:104EA0002946C0E73346C2E7B814002008030020B3
:104EB000BC1400202DE9F8436A4D0646AC68002872
:104EC00040F08C80AB891A072DD594F80E31FE2B5B
:104ED00004D140F2F3513120FBF754FBFE2384F858
:104EE0000E3194F886301C2B06D184F8C300281D9F
:104EF00006F094FA84F8866094F88530222B0AD163
:104F000094F88630A3F12202062A2AD9302B28D021
:104F1000232384F8853094F88730072B02BF0223BF
:104F20006B7584F80E31AB89DB071CD4AB895F0746
:104F30007CD4990740F18480287D0122AB680D283C
:104F400083F80F2179D0112800F08580072800F020
:104F50008480FEF7B7F9034600286FD140F2E6518E
:104F6000B9E73023D5E7D5F80880296998F8863065
:104F7000D1F80090113B99F800700D2B09D8BB1E99
:104F8000DBB2092B6BD840F2333222FA03F3D80795
:104F900065D509793846FDF76DFD20B939463248A7
:104FA00006F064FA3AE0012F01D9162F22D198F8C1
:104FB000850006F048FA40B198F88530222B04D0DD
:104FC000232B07D1302388F885303846FEF770F957
:104FD00003461CE0162F14BF022620262B781B0741
:104FE00005D594F88630113B0D2B98BF0826304626
:104FF000BDE8F883112F15D005D8072F14D00D2F39
:10500000E3D11A4B05E0142FDFD1194B1B68002B9D
:10501000C4D02A694946144812799847002885D097
:105020000646DBE7134BF4E7134BF2E794F88720CF
:10503000062A04BF01226A757BE7104B0A4898478D
:10504000AB89DA06CAD594F886300A2BC6D10B2371
:1050500084F88630C2E70A4BF0E70A4BEEE70826F1
:10506000BCE700BFB8140020BC140020A5C300009A
:10507000FC020020EDC3000089500000F3C20000D4
:1050800011C3000041C3000070B54D780446A5F17E
:105090000E03DBB2152B0DD8012140F2512201FA8B
:1050A00003F6164208D14268152B92F8852027D0C6
:1050B000082B07D0002070BD02462846BDE870408E
:1050C00007F0AFB8232A01D0302AF3D1204606F0EA
:1050D00092F9636893F88620242AEBD093F8D520C0
:1050E0001A21204622F0010283F8D520626892F846
:1050F000D53023F0080382F8D530FDF7D5F8D9E78D
:105100002A2AD7D1024B1B68002BD3D09847D1E76E
:10511000040300202DE9F041A0F10E0400291346FC
:10512000E4B208BF1F21172C0AD8012640F25127EC
:10513000A6403E4207D116F4600F23D1082C07D0B9
:105140000020BDE8F0810021BDE8F04107F069B81A
:10515000546894F88520232A08D11846FDF7A4F84E
:10516000002384F8853084F8BE30E9E7302AE7D19F
:1051700094F88620A2F122010629F1D9302AEFD035
:105180002A21EAE7054A1468002CD9D00A460146CC
:1051900018462346BDE8F041184700BF0003002031
:1051A0002DE9F84FB54F0E468046B989BC688D058C
:1051B00004F1780A54BFB4F8B4200023504653BF1A
:1051C0000132A4F8B43084F8AF31A4F8B42007F069
:1051D000D8F830B10B4604F5967221465046FEF7DA
:1051E0001DFABB8903F4C0632BB194F88930002BFE
:1051F00046D0032B4BD094F88920BB89012A04D1D7
:10520000180544BF022284F88920B8F1000F40F04D
:105210009480590657BFB4F8C8214246013292B271
:10522000A4F8C82103F00A020A2A0CD13A7D022A06
:1052300009D123F008033046BB81FFF73BFE304322
:105240000823C6B2BB813046FFF734FEBD68304349
:1052500095F80E31C6B2FE2B3CD1DEBB95F88730F7
:10526000063B012B36D995F81831ABB195F81931B9
:1052700001220221A5F8B86085F8103128462EE1F8
:10528000012184F889102046FEF7B4FEB3E702231B
:10529000012184F88930F6E795F886B0ABF1100B60
:1052A0005FFA8BFBBBF10E0F40F2EC80AB6FDA07BD
:1052B00002D532460921E1E7980740F19280324653
:1052C0000C21284606F0FCFF95F8C53043F0010399
:1052D00085F8C530B4F8A83194F8AC510133A4F87E
:1052E000A831002D00F0F281FCF776FB10B100230D
:1052F000A4F8A83194F88910012940F21C8294F88E
:105300008730072B40F0FA81B4F8B430022B40F21A
:105310001282B4F8B6500135ADB2B4F87E302B44E9
:10532000A4F8A03194F8AD31002B00F008820123DD
:10533000B4F87E201344A4F8A431BB89BD685B0691
:1053400057BFB5F8B4310023B5F8A6219B1858BF54
:105350009BB2A5F8B43195F8183123B995F8873088
:10536000063B012B06D8B5F8B830B5F8A621134492
:10537000A5F8B83095F8BE1031B1B5F8BA30B5F827
:10538000A6211344A5F8BA3095F9C220002AC1BF5E
:10539000B5F8C030B5F8A6011B18A5F8C03095F8CF
:1053A000A73063B9B8F1000F40F05B827B7D022B20
:1053B00040F00C8295F81031062B18BF162395F893
:1053C000A62022B92E4885F8A730FDF785FF28468C
:1053D00007F03AF8002384F8AB31BDE8F84FFCF74A
:1053E000CDBF590702D53246132147E71A0706D524
:1053F00095F80831324685F8103107213EE713F061
:10540000300F35D095F81B31002B5BD195F81A3150
:10541000CBB195F8863005F58D7105F25E22272B0C
:1054200024D095F88530A3F1270043424341284614
:1054300005F058FFAB6F23F0200343F01003AB6778
:10544000002385F81A31AB6FDA063BD505F235112A
:105450002846FDF74FFDB5F8523000221521A5F87A
:105460001031B5F85630A5F8123107E70123DEE711
:105470005B0627D50022242100E700BFB8140020D6
:10548000BC140020D7F8089099F88630172B32D03A
:1054900013D8112B20D0152B24D095F88530002B54
:1054A00067D195F88630103B0E2B6AD995F8B2304B
:1054B000002B66D001221221E0E61E2BEDD13246F0
:1054C00006210BE0B86890F88630242B41D0332BAE
:1054D000E3D10022112102E032460B21484606F0BA
:1054E000EFFEF7E64846FDF769FF00283FF4F2AE0D
:1054F00000220421F2E799F85832012B07D13246F5
:105500000521484606F0DCFE89F85862E2E699F883
:105510005832022BD9B27FF4DDAE99F8C43053B1C2
:105520000623324689F81031484606F0C9FE0023AA
:1055300089F85832EAE703210622B14805F07DFFD9
:1055400099F8D430324613F0040F0CBF0D2111210D
:10555000EAE790F82431022B02D100221721BEE79E
:1055600090F82431012B98D190F82531002BF4D0FC
:1055700093E7092B05D195F80931012285F81031FF
:105580003BE7BBF10E0F7FF6A5AEBD6895F88590A1
:10559000B9F1000F7FF49EAE95F82B313BB101229B
:1055A0000E21284606F08CFE85F82B91AEE795F883
:1055B0002A3183B195F8C59019F0030B0BD149F04E
:1055C000010901220C21284606F07AFE85F8C590D3
:1055D00085F82AB19AE795F81A3133B395F81B315B
:1055E0001BBB95F8863005F58D7105F25E22272BE1
:1055F00019D095F88530A3F127004342434128464E
:1056000005F070FE002385F81A3101221421284686
:1056100006F056FEB5F85230A5F81031B5F8563000
:10562000A5F8123156E60123E9E795F82431012B5C
:105630003FD195F82531002B3BD195F88630A3F169
:105640002202062A35D9302B33D095F8680001287C
:1056500006D0022804D04FF449710620FAF792FFD1
:1056600095F86910012901D00229F4D1022895F892
:1056700026210BD0012A14BF0022012242B90A3B85
:10568000042B7FF627AE01221621F7E5022AF2E766
:10569000022995F827210AD0012A14BF00220122ED
:1056A000002AECD000215648FCF7FEFD12E6022A43
:1056B000F3E7544B1B68002B3FF40CAE504898475F
:1056C000FE2801463FF406AE0122D7E5FCF77EF93D
:1056D00008B1A4F8A851FCF787F900283FF40AAEF6
:1056E00094F8AF310133DBB2022B84F8AF3182BFC3
:1056F0000023A4F8A83184F8AF31FBE594F8B23068
:105700001BB194F885300F2B15D1B4F8B650504624
:10571000B4F8B430ED1A033D06F033FE68B1D4F8A6
:10572000AC30D4F8A820033B9B1A9D42A8BF1D466D
:10573000012D3FF7F1AD0125EFE52B46F5E7012DF2
:105740007FF6F5AD94F8863013B10B2B7FF4EFADF7
:1057500094F88530002B7FF4EAAD94F88730002B65
:105760007FF4E5AD02297FF4E2AD94F8AF31002B70
:105770007FF4DDAD2069B4F82E9004F06DF90028B7
:105780003FF4D5AD94F80E31FE2B7FF4D0ADB4F8D4
:10579000A231012B7FF6CBADB4F8A821238C9A421D
:1057A000BFF4C5AD013D9B1AADB29BB2B5FBF9F597
:1057B0009D4228BF1D4605FB09F3003D03F101038F
:1057C00018BF01259BB284F8AA51B1E5012B09D17C
:1057D00095F88830002B7FF4F2AD00212846FEF7C3
:1057E00009FCF7E586B1F00639D4310739D4B206A1
:1057F00039D4B30739D140F6A82131202EE700BFB4
:10580000BC1400200C03002039B1B5F8BA10B5F86B
:10581000BC30994201D32223D1E5002A05DDB5F839
:10582000C020B5F8BC309A42F5D2B5F8B820B5F82A
:10583000B6309A420AD295F88920B5F8B43052B100
:10584000B5F8B6209A42C8D80823B8E595F81831BB
:10585000002BE0D1EFE7052BBFD93E23AFE51E2398
:10586000ADE53D23ABE52323A9E52A23A7E500BF4A
:1058700073B55B4B00250122044698601A719D8127
:105880001D705D75FF2380F8AB31B0F8A231D3B144
:1058900090F80E31FE2B16D190F818319BB190F88C
:1058A0008730063B93420ED990F819310221A0F8B7
:1058B000B85080F8103106F003FD022084F8AA5198
:1058C000FFF784FA03E094F80E01FE28F8D1B4F84B
:1058D000A61104F17806E38D0139B4F8A821304609
:1058E00089B2B1FBF3F31344A4F8A831B4F8B4308F
:1058F0000B44A4F8B43006F044FD20B1D4F8A8302D
:105900000B44C4F8A830B4F8A2310025012B9CBF89
:105910000133A4F8A23109B184F8AF5194F886306C
:1059200084F8AA51A3F10A02012A29D8B4F87E30DA
:10593000B4F85C229B1A19043BD404F25E2104F1F2
:105940008D0005F0CBFA84F88650FF2384F8BF3031
:10595000B4F8A6212146304605F007FB94F88630BE
:105960002049113B204A0D2B8CBF002301230193BA
:105970001E4B00931E4B03C9FBF736FF02B070BDF0
:10598000272B16D1B4F85C22B4F87E309B1A1A0487
:105990000FD484F88650FFF73BFA014630B984F8FB
:1059A000240102B0BDE87040FFF7FABB84F824512F
:1059B000CEE794F88530272B01D0292BC8D1B4F835
:1059C0007E30B4F85C229B1A1B04C1D4002384F8F7
:1059D0008530FFF71DFA01460028B9D1E1E700BF85
:1059E000B8140020BC140020614C0000A15100003C
:1059F000294C0000D0F864328269934210B5044605
:105A000004D1D0F86812026A914215D0228804F5B8
:105A1000C0700F49A4F88A2140F2E242B3FBF2F3CE
:105A2000A4F88C31B4F86832A4F88E31B4F86A3234
:105A3000A4F8903105F0DBFB0221204605F033F994
:105A4000002384F88630032384F8893010BD00BF1A
:105A500077B5000008B5FDF759FB024B024A1A6002
:105A600008BD00BFFC0200201D4D0000074B93F94C
:105A700000301844142804DC10F17F0F03DB40B21F
:105A80007047142070476FF07E007047D0140020DC
:105A90007F2307B50DF107008DF8073000F08EFD6C
:105AA00003469DF9070053B1094B5B785B425BB23B
:105AB0001844142806DC10F17F0F05DB40B203B058
:105AC0005DF804FB1420FAE76FF07E00F7E700BFF3
:105AD000D0140020024B00221A705A70704700BF89
:105AE000D0140020064BD3F8000138B1D3F80401DC
:105AF00020B1D3F80801B0FA80F04009704700BF28
:105B000000600450034B00221A705A7010229A70E1
:105B1000704700BFD4140020F8B506460220144692
:105B20000D4600F0CBF8114B114A01275C60191D9E
:105B30009A6002F1807203342D011F70DC601D83B6
:105B4000C3E904260022243303F80A2C0D2203F8AB
:105B5000092C084AC2F83015074903C983E8030035
:105B6000C2F80875C2F83835F8BD00BFD41400205B
:105B70000300000B006004503C54030008B50220F1
:105B800000F09CF80D4B01221A7000220C4BC3F858
:105B90000021C3F80421C3F808210A4AC3F8802071
:105BA00003F57433C3F88C20A3F58023C3F88C214C
:105BB000A3F580530822C3F8042508BDD41400209F
:105BC0000060045003000080154A08B51378FBB14B
:105BD00000231449C1F8803001F57431C1F88C30CC
:105BE000A1F58021C1F88C3108210F4BC3F80815AD
:105BF000FFF778FF88B101235370938EFF2B03D9F1
:105C0000BC213B20FAF7BEFCDBB29370002313707B
:105C10000020BDE8084000F051B810235070F4E7B0
:105C2000D41400200060045000200450094B1A785E
:105C300062B1094BD3F8002152B1D3F8040140B14D
:105C4000D3F80801B0FA80F04009704758787047DF
:105C500002207047D414002000600450064A08B5A2
:105C600013782BB1FFF73EFF20B192F8340008BD46
:105C70009078FCE71020FAE7D414002038B5084CDF
:105C80000025D4F80035032B04BF01236360C4F85A
:105C90000055C4F8005500F0C7FFC4F8805038BD67
:105CA00000600450044B4022C3F88820BFF34F8F9C
